:020000040800F2
:10000000880B00209D010008A5010008A701000839
:10001000A9010008AB010008AD01000800000000C4
:10002000000000000000000000000000AF01000818
:10003000B101000800000000B3010008994D00085C
:10004000B7010008B7010008B7010008B7010008B0
:10005000B7010008B7010008B7010008B7010008A0
:10006000B7010008B7010008B7010008B701000890
:10007000B7010008B7010008B7010008B701000880
:10008000E5010008F9010008B7010008B701000800
:10009000B7010008B7010008B7010008B701000860
:1000A000B7010008B7010008B7010008B701000850
:1000B000B7010008B7010008B7010008B701000840
:1000C000B7010008B7010008B7010008B701000830
:1000D000B70100084555000859550008B701000848
:1000E000B7010008B7010008D54C0008B7010008A7
:1000F000B7010008B7010008B7010008B701000800
:10010000B7010008B7010008B7010008B7010008EF
:10011000B7010008B7010008B7010008794E0008D0
:10012000B7010008B70100080D020008B701000878
:10013000B7010008B7010008B7010008B7010008BF
:10014000B7010008B7010008B7010008C14C00085A
:10015000B7010008B701000821020008B701000834
:10016000B7010008B7010008B7010008B70100088F
:10017000B7010008B7010008B7010008000000003F
:10018000B7010008B7010008DFF80CD000F018F83C
:100190000048004719680008880B0020064880477F
:1001A00006480047FEE7FEE7FEE7FEE7FEE7FEE75C
:1001B000FEE7FEE7FEE7FEE7154E000889010008AE
:1001C000064C074D06E0E06840F0010394E80700A4
:1001D00098471034AC42F6D3FFF7DAFF186D0008E9
:1001E000386D000810B5102002F052FD014800F0F3
:1001F00021F810BDD802002010B5112002F048FDF2
:10020000014800F017F810BD2803002010B53A206F
:1002100002F03EFD014800F00DF810BD380200204C
:1002200010B5462002F034FD014800F003F810BD7F
:100230008802002010B50446F949206888425DD93B
:10024000F74854380068F74A2168914201D10821E3
:1002500052E0F34A483A2168914201D108214BE02B
:10026000F04A60322168914201D1082144E0EC4A11
:1002700018322168914201D108213DE0E94A183243
:100280002168914201D1491536E0E54A303A2168AA
:10029000914201D149152FE0E24A7832216891421A
:1002A00001D1491528E0DE4A30322168914201D15E
:1002B000491521E0DB4A30322168914202D14FF4E6
:1002C000002119E0D64A183A2168914202D14FF430
:1002D000002111E0D34A90322168914202D14FF4BB
:1002E000002109E0CE4A48322168914202D14FF400
:1002F000002101E04FF00071084022E1C949A83116
:10030000206888425DD9C64858380068C54A2168C7
:10031000914201D1082152E0C14A483A21689142F4
:1003200001D108214BE0BF4A60322168914201D1DE
:10033000082144E0BA4A18322168914201D10821CB
:100340003DE0B84A18322168914201D1491536E0A2
:10035000B34A303A2168914201D149152FE0B14AA0
:1003600078322168914201D1491528E0AC4A3032F7
:100370002168914201D1491521E0AA4A3032216811
:10038000914202D14FF4002119E0A54A183A2168A0
:10039000914202D14FF4002111E0A24A903221682B
:1003A000914202D14FF4002109E09D4A4832216870
:1003B000914202D14FF4002101E04FF0007108405A
:1003C000BFE098494831206888425DD99548103887
:1003D0004068944A2168914201D1082152E0904A34
:1003E000483A2168914201D108214BE08D4A6032A0
:1003F0002168914201D1082144E0894A18322168DC
:10040000914201D108213DE0864A1832216891428B
:1004100001D1491536E0824A303A2168914201D132
:1004200049152FE07F4A78322168914201D1491560
:1004300028E07B4A30322168914201D1491521E000
:10044000784A30322168914202D14FF4002119E0FC
:10045000734A183A2168914202D14FF4002111E009
:10046000704A90322168914202D14FF4002109E094
:100470006B4A48322168914202D14FF4002101E0D9
:100480004FF0007108405CE0664810380068654A2B
:100490002168914201D1082152E0614A483A21681D
:1004A000914201D108214BE05E4A603221689142BD
:1004B00001D1082144E05A4A18322168914201D101
:1004C00008213DE0574A18322168914201D149156F
:1004D00036E0534A303A2168914201D149152FE064
:1004E000504A78322168914201D1491528E04C4A9E
:1004F00030322168914201D1491521E0494A303218
:100500002168914202D14FF4002119E0444A183A7F
:100510002168914202D14FF4002111E0414A90320A
:100520002168914202D14FF4002109E03C4A48324F
:100530002168914202D14FF4002101E04FF0007197
:100540000840002870D02068006800F004000028EF
:10055000F8D02068006820F0040021680860304965
:100560002068884261D92F492068884201D108203B
:1005700052E02B4948392068884201D108204BE0DD
:10058000284960312068884201D1082044E024498C
:1005900018312068884201D108203DE021491831F6
:1005A0002068884201D1401536E01D493039206865
:1005B000884201D140152FE01A49783120688842DD
:1005C00001D1401528E0164930312068884201D118
:1005D000401521E0134930312068884202D14FF4A0
:1005E000002019E00E4918392068884202D14FF4E2
:1005F000002011E00B4990312068884202D14FF46D
:10060000002009E0064948312068884202D14FF4B1
:10061000002001E04FF0007001494C39086023E1EF
:1006200058640240106002402FE1F8492068884277
:100630005CD9F649A8392068884201D1082051E0E8
:10064000F3492068884201D108204BE0EF4948393E
:100650002068884201D1082044E0ED4960312068DB
:10066000884201D108203DE0E8499039206888425D
:1006700001D1401536E0E64918312068884201D1A1
:1006800040152FE0E14930392068884201D14015FA
:1006900028E0DF4978312068884201D1401521E007
:1006A000DA4978392068884202D14FF4002019E0F5
:1006B000D74930312068884202D14FF4002011E040
:1006C000D24918392068884202D14FF4002009E04D
:1006D000CF4990312068884202D14FF4002001E0D8
:1006E0004FF00070CA4908390860BDE0C749603959
:1006F000206888425CD9C549A8392068884201D160
:10070000082051E0C2492068884201D108204BE00E
:10071000BE4948392068884201D1082044E0BC49DC
:1007200060312068884201D108203DE0B749903906
:100730002068884201D1401536E0B549183120685B
:10074000884201D140152FE0B049303920688842F5
:1007500001D1401528E0AE4978312068884201D1A6
:10076000401521E0A94978392068884202D14FF428
:10077000002019E0A64930312068884202D14FF4A8
:10078000002011E0A14918392068884202D14FF4B5
:10079000002009E09E4990312068884202D14FF440
:1007A000002001E04FF000709849B839C8605BE064
:1007B0009649A8392068884201D1082051E094491F
:1007C0002068884201D108204BE0904948392068D0
:1007D000884201D1082044E08D4960312068884278
:1007E00001D108203DE0894990392068884201D133
:1007F000401536E0864918312068884201D14015FD
:100800002FE0824930392068884201D1401528E024
:100810007F4978312068884201D1401521E07B4929
:1008200078392068884202D14FF4002019E07849D5
:1008300030312068884202D14FF4002011E0734922
:1008400018392068884202D14FF4002009E070492D
:1008500090312068884202D14FF4002001E04FF02F
:1008600000706A49B8398860E06C40F00100E064CB
:10087000042084F8350000BF002084F8340000BF55
:10088000A06C10B12046A16C8847614948312068AE
:1008900088425DD95E480C3800685C4AA83A2168F5
:1008A000914201D15B4951E0594A2168914201D1FD
:1008B00058494BE0554A483A2168914201D155497F
:1008C00044E0534A60322168914201D151493DE0F0
:1008D0004E4A903A2168914201D1402136E04C4A7B
:1008E00018322168914201D140212FE0474A303A25
:1008F0002168914201D1402128E0454A783221689F
:10090000914201D1402121E0404A783A2168914248
:1009100002D14FF4803119E03D4A303221689142D2
:1009200002D14FF4803111E0384A183A21689142DF
:1009300002D14FF4803109E0354A9032216891426A
:1009400002D14FF4803101E04FF48001084026E1EC
:100950002E492068884263D92D48103800682B4AF8
:10096000A83A2168914201D12A4957E0284A2168D2
:10097000914201D1274951E0244A483A21689142E5
:1009800001D124494AE0224A60322168914201D1D2
:10099000204943E01D4A903A2168914201D140210B
:1009A0003CE01B4A18322168914201D1402135E0D8
:1009B000164A303A2168914201D140212EE0144A72
:1009C00078322168914201D1402127E00F4A783ADC
:1009D0002168914202D14FF480311FE00C4A30323D
:1009E0002168914202D14FF4803117E0074A183A4A
:1009F0002168914202D14FF480310FE0044A9032D5
:100A00002168914208D14FF4803107E0B86002407C
:100A100010640240010080004FF480010840BEE0F5
:100A2000F949206888425DD9F74858384068F64A45
:100A3000483A2168914201D1F44951E0F44A2168D1
:100A4000914201D1F1494BE0EF4A183221689142BD
:100A500001D1EE4944E0EE4A60322168914201D171
:100A6000EA493DE0E84A303A2168914201D140210B
:100A700036E0E74A18322168914201D140212FE047
:100A8000E14A30322168914201D1402128E0E04A18
:100A900078322168914201D1402121E0DA4A183AA6
:100AA0002168914202D14FF4803119E0D84A3032A6
:100AB0002168914202D14FF4803111E0D24A48328C
:100AC0002168914202D14FF4803109E0D04A90323E
:100AD0002168914202D14FF4803101E04FF480014E
:100AE00008405CE0C84858380068C74A483A21685E
:100AF000914201D1C54951E0C54A2168914201D1D5
:100B0000C2494BE0C04A18322168914201D1BF4925
:100B100044E0BF4A60322168914201D1BB493DE0C7
:100B2000B94A303A2168914201D1402136E0B84AB1
:100B300018322168914201D140212FE0B24A30326F
:100B40002168914201D1402128E0B14A78322168E0
:100B5000914201D1402121E0AB4A183A21689142EB
:100B600002D14FF4803119E0A94A30322168914214
:100B700002D14FF4803111E0A34A483221689142FA
:100B800002D14FF4803109E0A14A903221689142AC
:100B900002D14FF4803101E04FF480010840002879
:100BA00079D02068406900F08000002873D0206868
:100BB000406920F0800021684861954948312068EB
:100BC00088425CD9904948392068884201D18F48D1
:100BD00051E08F492068884201D18C484BE08A4916
:100BE00018312068884201D1884844E08849603142
:100BF0002068884201D185483DE08349303920682A
:100C0000884201D1402036E081491831206888426D
:100C100001D140202FE07C4930312068884201D149
:100C2000402028E07A4978312068884201D140206C
:100C300021E0754918392068884202D14FF480308C
:100C400019E0734930312068884202D14FF4803076
:100C500011E06D4948312068884202D14FF480305C
:100C600009E06B4990312068884202D14FF480300E
:100C700001E04FF480006649091F086025E16249E0
:100C80006031206888425DD95F49483920688842D0
:100C900002D15E4852E029E15D492068884201D1D5
:100CA0005A484BE0584918312068884201D15748CA
:100CB00044E0574960312068884201D153483DE003
:100CC000514930392068884201D1402036E05049EE
:100CD00018312068884201D140202FE04A49303144
:100CE0002068884201D1402028E0494978312068B5
:100CF000884201D1402021E04349183920688842C8
:100D000002D14FF4803019E04149303120688842E7
:100D100002D14FF4803011E03B49483120688842CD
:100D200002D14FF4803009E039499031206888427F
:100D300002D14FF4803001E04FF48000344908398B
:100D40000860C2E030492068884263D92E4948399A
:100D50002068884201D12D4851E02D492068884201
:100D600001D12A484BE0284918312068884201D136
:100D7000264844E0264960312068884201D1234852
:100D80003DE0214930392068884201D1402036E0D9
:100D90001F4918312068884201D140202FE01A49AC
:100DA00030312068884201D1402028E0184978314C
:100DB0002068884201D1402021E013491839206879
:100DC000884202D14FF4803019E011493031206857
:100DD000884202D14FF4803011E00B49483120683D
:100DE000884202D14FF4803009E0094990312068EF
:100DF000884202D14FF4803001E04FF48000024974
:100E00005839C86061E005E0586002400100800088
:100E100010640240F9492068884201D1F84851E045
:100E2000F8492068884201D1F5484BE0F349603128
:100E30002068884201D1F24844E0F24960312068DC
:100E4000884201D1EE483DE0EC49183120688842E3
:100E500001D1402036E0EB4918312068884201D1A9
:100E600040202FE0E54978312068884201D14020B8
:100E700028E0E44978312068884201D1402021E00F
:100E8000DE4930312068884202D14FF4803019E0C9
:100E9000DC4930312068884202D14FF4803011E0C3
:100EA000D64990312068884202D14FF4803009E061
:100EB000D44990312068884202D14FF4803001E05B
:100EC0004FF48000CD4910398860E06C40F002009A
:100ED000E064042084F8350000BF002084F834006A
:100EE00000BFA06C10B12046A16C8847C5494831AD
:100EF0002068884260D9C3480C380068BF4A21681E
:100F0000914202D1BE49C91C54E0BE4A21689142B7
:100F100002D1BB49C91C4DE0B84A603221689142F8
:100F200002D1B749C91C45E0B64A603221689142F6
:100F300002D1B349C91C3DE0B04A18322168914240
:100F400001D1891536E0AF4A18322168914201D1AA
:100F500089152FE0A94A78322168914201D189157B
:100F600028E0A84A78322168914201D1891521E010
:100F7000A24A30322168914202D14FF4802119E017
:100F8000A04A30322168914202D14FF4802111E011
:100F90009A4A90322168914202D14FF4802109E0AF
:100FA000984A90322168914202D14FF4802101E0A9
:100FB0004FF08071084031E19049A83120688842A3
:100FC00060D99048103800688C4A2168914202D15B
:100FD0008B49C91C54E08B4A2168914202D188494F
:100FE000C91C4DE0854A60322168914202D1844992
:100FF000C91C45E0834A60322168914202D1804990
:10100000C91C3DE07D4A18322168914201D1891501
:1010100036E07C4A18322168914201D189152FE0CF
:10102000764A78322168914201D1891528E0754AC3
:1010300078322168914201D1891521E06F4A30321E
:101040002168914202D14FF4802119E06D4A30327B
:101050002168914202D14FF4802111E0674A903219
:101060002168914202D14FF4802109E0654A903213
:101070002168914202D14FF4802101E04FF080714C
:101080000840CBE05D4948312068884260D95B4820
:1010900010384068594A2168914202D15849C91C08
:1010A00054E0584A2168914202D15549C91C4DE08B
:1010B000524A60322168914202D15149C91C45E02F
:1010C000504A60322168914202D14D49C91C3DE02D
:1010D0004A4A18322168914201D1891536E0494ABD
:1010E00018322168914201D189152FE0434A7832A4
:1010F0002168914201D1891528E0424A783221685D
:10110000914201D1891521E03C4A30322168914257
:1011100002D14FF4802119E03A4A303221689142DD
:1011200002D14FF4802111E0344A9032216891427B
:1011300002D14FF4802109E0324A90322168914275
:1011400002D14FF4802101E04FF08071084065E04A
:101150002A4810380068294A2168914202D128495A
:10116000C91C5AE0274A2168914202D12449C91C6E
:1011700053E0224A60322168914202D12049C91CC1
:101180004BE0204A60322168914202D11C49C91CBF
:1011900043E01A4A18322168914201D189153CE096
:1011A000184A18322168914201D1891535E0134A55
:1011B00078322168914201D189152EE0114A7832A6
:1011C0002168914201D1891527E00C4A303221680B
:1011D000914202D14FF480211FE00A4A3032216847
:1011E000914202D14FF4802117E0044A90322168E5
:1011F000914209D14FF480210FE0000010600240BD
:101200000100800010640240FA4A2168914202D134
:101210004FF4802101E04FF08071084088B32068CE
:10122000006800F0020060B32068006820F002004F
:1012300021680860EF494839206888425CD9EE4946
:101240002068884201D1ED4852E0EA49903920688F
:10125000884201D1E9484BE0E74960312068884283
:1012600001D1E64844E0E34930392068884201D1A1
:10127000E2483DE0E04918312068884202D18015FB
:1012800036E067E1DB4978392068884201D1801572
:101290002EE0D94978312068884201D1801527E0B5
:1012A000D44918392068884201D1801520E0D249FC
:1012B00030312068884202D14FF4802018E0CD49B7
:1012C00060392068884202D14FF4802010E0CA497A
:1012D00090312068884202D14FF4802008E0C5494F
:1012E0002068884202D14FF4802001E04FF08070E6
:1012F000C049943908601CE1BF49A8312068884280
:101300005BD9BD492068884201D1BC4851E0B94948
:1013100090392068884201D1B8484AE0B649603126
:101320002068884201D1B54843E0B249303920688D
:10133000884201D1B1483CE0AF4918312068884269
:1013400001D1801535E0AB4978392068884201D158
:1013500080152EE0A84978312068884201D1801597
:1013600027E0A44918392068884201D1801520E07F
:10137000A14930312068884202D14FF4802018E022
:101380009C4960392068884202D14FF4802010E0E7
:10139000994990312068884202D14FF4802008E0BA
:1013A00094492068884202D14FF4802001E04FF038
:1013B0008070904998390860BBE08F4948312068B7
:1013C00088425BD98C492068884201D18B4851E022
:1013D000884990392068884201D188484AE0864986
:1013E00060312068884201D1844843E08149303926
:1013F0002068884201D181483CE07F49183120684B
:10140000884201D1801535E07A49783920688842D0
:1014100001D180152EE0784978312068884201D1C9
:10142000801527E0734918392068884201D180155A
:1014300020E0714930312068884202D14FF4802089
:1014400018E06C4960392068884202D14FF480204E
:1014500010E0694990312068884202D14FF4802021
:1014600008E064492068884202D14FF4802001E0FE
:101470004FF0807060491039C8605AE05E492068BA
:10148000884201D15D4851E05A499039206888422C
:1014900001D15A484AE0584960312068884201D158
:1014A000564843E0534930392068884201D15348B7
:1014B0003CE0514918312068884201D1801535E05F
:1014C0004C4978392068884201D180152EE04A497C
:1014D00078312068884201D1801527E045491839C4
:1014E0002068884201D1801520E0434930312068CE
:1014F000884202D14FF4802018E03E4960392068CC
:10150000884202D14FF4802010E03B49903120689E
:10151000884202D14FF4802008E036492068884292
:1015200002D14FF4802001E04FF080703249103931
:101530008860E06C40F00400E064042084F835002A
:1015400000BF002084F8340000BFA06C10B120461A
:10155000A16C8847274948392068884262D92548C4
:101560009C380068244A2168914201D1102157E03B
:10157000204A903A2168914201D1102150E01E4A40
:1015800060322168914201D1102149E0194A303A74
:101590002168914201D1102142E0174A1832216896
:1015A000914201D109153BE0124A783A21689142F3
:1015B00001D1091534E0104A78322168914201D1F5
:1015C00009152DE00B4A183A2168914201D10915FD
:1015D00026E0094A30322168914202D14FF480114D
:1015E0001EE0044A603A2168914209D14FF480110B
:1015F00016E00000A0640240106002400400800079
:10160000F74A2168914202D14FF4801108E0F54A6F
:101610002168914202D14FF4801101E04FF08061C6
:1016200008401FE1EE491831206888425CD9ED4836
:10163000A0380068EA4A903A2168914201D110210D
:1016400050E0E84A903A2168914201D1102149E0E6
:10165000E34A303A2168914201D1102142E0E14A47
:10166000303A2168914201D110213BE0DC4A783ABE
:101670002168914201D1091534E0DA4A783A2168AB
:10168000914201D109152DE0D54A183A21689142BD
:1016900001D1091526E0D34A183A2168914201D1B7
:1016A00009151FE0CE4A603A2168914202D14FF4F9
:1016B000801117E0CB4A603A2168914202D14FF481
:1016C00080110FE0C64A2168914202D14FF4801187
:1016D00008E0C44A2168914202D14FF4801101E030
:1016E0004FF080610840BDE0BD494839206888421C
:1016F0005CD9BB48A0384068B94A903A2168914209
:1017000001D1102150E0B74A903A2168914201D1AD
:10171000102149E0B24A303A2168914201D11021AA
:1017200042E0B04A303A2168914201D110213BE0B9
:10173000AB4A783A2168914201D1091534E0A94AAF
:10174000783A2168914201D109152DE0A44A183A4E
:101750002168914201D1091526E0A24A183A216870
:10176000914201D109151FE09D4A603A21689142DA
:1017700002D14FF4801117E09A4A603A21689142F1
:1017800002D14FF480110FE0954A2168914202D1B5
:101790004FF4801108E0934A2168914202D14FF43E
:1017A000801101E04FF0806108405BE08C48A03878
:1017B00000688B4A903A2168914201D1102150E093
:1017C000884A903A2168914201D1102149E0844A27
:1017D000303A2168914201D1102142E0814A303AE9
:1017E0002168914201D110213BE07D4A783A21687D
:1017F000914201D1091534E07A4A783A2168914240
:1018000001D109152DE0764A183A2168914201D19B
:10181000091526E0734A183A2168914201D1091549
:101820001FE06F4A603A2168914202D14FF4801163
:1018300017E06C4A603A2168914202D14FF480115E
:101840000FE0674A2168914202D14FF4801108E00D
:10185000644A2168914202D14FF4801101E04FF0B7
:1018600080610840002878D02068006800F00800F7
:10187000002872D02068006800F48020A8B359497D
:101880004839206888425CD9554990392068884297
:1018900001D1102051E0534990392068884201D18C
:1018A00010204AE04E4930392068884201D110208A
:1018B00043E04C4930392068884201D110203CE097
:1018C000474978392068884201D1001535E04549FB
:1018D00078392068884201D100152EE04049183936
:1018E0002068884202D1001527E05FE13D491839A0
:1018F0002068884201D100151FE03949603920680D
:10190000884202D14FF4801017E0364960392068D0
:10191000884202D14FF480100FE03149206888429C
:1019200002D14FF4801008E02E492068884202D18D
:101930004FF4801001E04FF080602A49943908602C
:1019400022E1274918312068884261D92449903919
:101950002068884202D1102056E0BEE22149903929
:101960002068884201D110204EE01D49303920689E
:10197000884201D1102047E01A4930392068884256
:1019800001D1102040E0164978392068884201D101
:10199000001539E0134978392068884201D10015D3
:1019A00032E00F4918392068884201D100152BE038
:1019B0000C4918392068884201D1001524E00849F3
:1019C00060392068884202D14FF480101CE005493C
:1019D00060392068884207D14FF4801014E000007D
:1019E000A0600240A0640240FA492068884202D107
:1019F0004FF4801008E0F8492068884202D14FF483
:101A0000801001E04FF08060F34998390860BBE036
:101A1000F0494839206888425BD9EE4990392068FE
:101A2000884201D1102050E0EB499039206888426B
:101A300001D1102049E0E74930392068884201D1BE
:101A4000102042E0E44930392068884201D110205A
:101A50003BE0E04978392068884201D1001534E044
:101A6000DD4978392068884201D100152DE0D94937
:101A700018392068884201D1001526E0D649183966
:101A80002068884201D100151FE0D24960392068E2
:101A9000884202D14FF4801017E0CF4960392068A6
:101AA000884202D14FF480100FE0CA492068884272
:101AB00002D14FF4801008E0C7492068884202D163
:101AC0004FF4801001E04FF08060C249A039C86037
:101AD0005AE0C04990392068884201D1102050E076
:101AE000BD4990392068884201D1102049E0B949A8
:101AF00030392068884201D1102042E0B64930399F
:101B00002068884201D110203BE0B2497839206832
:101B1000884201D1001534E0AF4978392068884205
:101B200001D100152DE0AB4918392068884201D158
:101B3000001526E0A84918392068884201D100150F
:101B40001FE0A44960392068884202D14FF4801018
:101B500017E0A14960392068884202D14FF4801013
:101B60000FE09C492068884202D14FF4801008E0C1
:101B700099492068884202D14FF4801001E04FF06B
:101B800080609449A03988602068006800F40020D3
:101B900018B9312084F835009AE12068006800F413
:101BA000002078B3412084F8350091E12068006876
:101BB00000F4807028B92068006820F008002168CF
:101BC000086085494839206888425CD98149903944
:101BD0002068884201D1102051E07F499039206867
:101BE000884201D110204AE07A4930392068884281
:101BF00001D1102043E0784930392068884202D171
:101C000010203CE064E1734978392068884201D1B2
:101C1000001534E0704978392068884201D10015F8
:101C20002DE06C4918392068884201D1001526E062
:101C3000694918392068884201D100151FE06549BB
:101C400060392068884202D14FF4801017E0624961
:101C500060392068884202D14FF480100FE05D495E
:101C60002068884202D14FF4801008E05A49206869
:101C7000884202D14FF4801001E04FF08060564955
:101C80009439086021E153491831206888425BD9B2
:101C9000504990392068884201D1102050E04E49C7
:101CA00090392068884201D1102049E049493039F3
:101CB0002068884201D1102042E04749303920682D
:101CC000884201D110203BE042497839206888429F
:101CD00001D1001534E0404978392068884201D1AB
:101CE00000152DE03B4918392068884201D10015C4
:101CF00026E0394918392068884201D100151FE0D3
:101D0000344960392068884202D14FF4801017E0CE
:101D1000314960392068884202D14FF480100FE0C9
:101D20002C492068884202D14FF4801008E02A49EB
:101D30002068884202D14FF4801001E04FF08060AB
:101D4000254998390860C0E022494839206888420E
:101D500060D9204990392068884201D1102055E08F
:101D60001D4990392068884201D110204EE0194960
:101D700030392068884201D1102047E016493039B7
:101D80002068884201D1102040E01249783920684B
:101D9000884201D1001539E00F497839206888421E
:101DA00001D1001532E00B4918392068884201D171
:101DB00000152BE0084918392068884201D1001528
:101DC00024E0044960392068884207D14FF480102C
:101DD0001CE00000A0600240A0640240F7492068B7
:101DE000884202D14FF4801010E0F5492068884203
:101DF00002D14FF4801009E0F04960312068884238
:101E000002D14FF4801001E04FF08060EC49A0391E
:101E1000C8605AE0EA4990392068884201D1102010
:101E200050E0E64930392068884201D1102049E06D
:101E3000E34930392068884201D1102042E0DF496F
:101E400030312068884201D110203BE0DC497839EC
:101E50002068884201D1001534E0D849183920683B
:101E6000884201D100152DE0D549183920688842F3
:101E700001D1001526E0D14948312068884201D1BE
:101E800000151FE0CE4960392068884202D14FF426
:101E9000801017E0C9492068884202D14FF48010B1
:101EA00010E0C7492068884202D14FF4801009E051
:101EB000C24960312068884202D14FF4801001E0AD
:101EC0004FF08060BE49A0398860312084F8350029
:101ED000206C10B12046216C8847B8491831206821
:101EE00088425CD9B5483C380068B54A903A2168C8
:101EF000914201D1202150E0B04A303A216891420C
:101F000001D1202149E0AE4A303A2168914201D105
:101F1000202142E0A94A30322168914201D120219A
:101F20003BE0A74A783A2168914201D1C91434E0D4
:101F3000A24A183A2168914201D1C9142DE0A04A61
:101F4000183A2168914201D1C91426E09B4A4832CF
:101F50002168914201D1C9141FE0994A603A216871
:101F6000914202D14FF4001117E0944A2168914246
:101F700002D14FF4001110E0914A2168914202D140
:101F80004FF4001109E08D4A60322168914202D17C
:101F90004FF4001101E04FF00061084023E188494F
:101FA0001831206888425CD9844840380068844AE7
:101FB000903A2168914201D1202150E07F4A303A85
:101FC0002168914201D1202149E07D4A303A2168BF
:101FD000914201D1202142E0784A30322168914279
:101FE00001D120213BE0764A783A2168914201D123
:101FF000C91434E0714A183A2168914201D1C914D8
:102000002DE06F4A183A2168914201D1C91426E0A7
:102010006A4A48322168914201D1C9141FE0684AD6
:10202000603A2168914202D14FF4001117E0634AEF
:102030002168914202D14FF4001110E0604A2168FA
:10204000914202D14FF4001109E05C4A60322168EC
:10205000914202D14FF4001101E04FF000610840BD
:10206000C1E057494839206888425CD95448A038B3
:102070004068534A903A2168914201D1202150E0B2
:102080004E4A303A2168914201D1202149E04C4A20
:10209000303A2168914201D1202142E0474A303252
:1020A0002168914201D120213BE0454A783A2168DC
:1020B000914201D1C91434E0404A183A2168914252
:1020C00001D1C9142DE03E4A183A2168914201D14C
:1020D000C91426E0394A48322168914201D1C91415
:1020E0001FE0374A603A2168914202D14FF4001153
:1020F00017E0324A2168914202D14FF4001110E0FA
:102100002F4A2168914202D14FF4001109E02B4A75
:1021100060322168914202D14FF4001101E04FF08A
:10212000006108405FE02648A0380068244A903AE1
:102130002168914201D1202154E0204A303A21689F
:10214000914201D120214DE01D4A303A216891424F
:1021500001D1202146E0194A30322168914201D153
:1021600020213FE0164A783A2168914201D1C914F2
:1021700038E0124A183A2168914201D1C91431E07D
:102180000F4A183A2168914201D1C9142AE00B4A3A
:1021900048322168914201D1C91423E0084A603ACB
:1021A0002168914202D14FF400111BE0034A2168DB
:1021B000914207D14FF4001114E000004064024046
:1021C000A0600240F94A2168914202D14FF4001107
:1021D00008E0F74A2168914202D14FF4001101E072
:1021E0004FF00061084088B32068006800F01000DC
:1021F00060B32068006800F4802040B3EC4948399F
:10220000206888425DD9E94990392068884201D127
:10221000202052E0E64990392068884201D12020F0
:102220004BE0E24930392068884201D1202044E067
:10223000DF4930392068884201D120203DE0DB4968
:1022400078392068884203D1C01436E091E16BE10F
:10225000D74978392068884201D1C0142DE0D3498C
:1022600018392068884201D1C01426E0D0491839B5
:102270002068884201D1C0141FE0CC496039206831
:10228000884202D14FF4001017E0C9496039206834
:10229000884202D14FF400100FE0C4492068884200
:1022A00002D14FF4001008E0C1492068884202D1F1
:1022B0004FF4001001E04FF00060BD499439086010
:1022C0001CE1BA491831206888425BD9B749903976
:1022D0002068884201D1202050E0B549903920681B
:1022E000884201D1202049E0B04930392068884235
:1022F00001D1202042E0AE4930392068884201D126
:1023000020203BE0A94978392068884201D1C014D7
:1023100034E0A74978392068884201D1C0142DE003
:10232000A24918392068884201D1C01426E0A0498A
:1023300018392068884201D1C0141FE09B496039D8
:102340002068884202D14FF4001017E098496039A4
:102350002068884202D14FF400100FE093492068B2
:10236000884202D14FF4001008E091492068884269
:1023700002D14FF4001001E04FF000608C49983911
:102380000860BBE089494839206888425BD98749A1
:1023900090392068884201D1202050E0844990394A
:1023A0002068884201D1202049E0804930392068E6
:1023B000884201D1202042E07D493039206888429E
:1023C00001D120203BE0794978392068884201D149
:1023D000C01434E0764978392068884201D1C014AD
:1023E0002DE0724918392068884201D1C01426E0D6
:1023F0006F4918392068884201D1C0141FE06B4929
:1024000060392068884202D14FF4001017E0684913
:1024100060392068884202D14FF400100FE0634910
:102420002068884202D14FF4001008E0604920681B
:10243000884202D14FF4001001E04FF000605B4988
:10244000A039C8605AE0594990392068884201D1C2
:10245000202050E0564990392068884201D1202040
:1024600049E0524930392068884201D1202042E0B9
:102470004F4930392068884201D120203BE04B4948
:1024800078392068884201D1C01434E0484978394D
:102490002068884201D1C0142DE0444918392068D1
:1024A000884201D1C01426E0414918392068884289
:1024B00001D1C0141FE03D4960392068884202D133
:1024C0004FF4001017E03A4960392068884202D181
:1024D0004FF400100FE035492068884202D14FF4D4
:1024E000001008E032492068884202D14FF4001001
:1024F00001E04FF000602D49A03988602068006835
:1025000000F4002028B9606C98B32046616C8847BD
:10251000A7E12068006800F4002050B3E06B40B3EE
:102520002046E16B88479CE12068006800F48070D9
:1025300028B92068006820F01000216808601C4954
:1025400048392068884260D9184990392068884203
:1025500001D1202055E0164990392068884201D1E8
:1025600020204EE0114930392068884202D12020D5
:1025700047E076E10E4930392068884201D12020B9
:102580003FE00A4978392068884201D1C01438E018
:10259000074978392068884201D1C01431E00349E5
:1025A00018392068884205D1C0142AE0A060024092
:1025B000A0640240AB492068884201D1C01420E0E9
:1025C000A9492068884202D14FF4001019E0A549BA
:1025D00048392068884202D14FF4001011E0A24926
:1025E00060312068884202D14FF4001009E09D4913
:1025F00018312068884202D14FF4001001E04FF0FA
:10260000006098497C3908601CE19749783120685E
:1026100088425BD9944930392068884201D1202012
:1026200050E0904978392068884201D1202049E063
:102630008D4930312068884201D1202042E089490B
:1026400018392068884201D120203BE0864918399A
:102650002068884201D1C01434E082496039206882
:10266000884201D1C0142DE07F494831206888425A
:1026700001D1C01426E07B492068884201D1C014F2
:1026800020E079492068884202D14FF4001019E017
:10269000744948392068884202D14FF4001011E093
:1026A000714960312068884202D14FF4001009E07E
:1026B0006C4918312068884202D14FF4001001E0C3
:1026C0004FF00060674980390860BBE06649183107
:1026D000206888425BD9644930392068884201D13A
:1026E000202050E05F4978392068884201D12020BD
:1026F00049E05D4930312068884201D1202042E024
:10270000584918392068884201D120203BE05649B9
:1027100018392068884201D1C01434E05149603929
:102720002068884201D1C0142DE04F49483120680B
:10273000884201D1C01426E04A492068884201D16C
:10274000C01420E048492068884202D14FF40010AC
:1027500019E0444948392068884202D14FF40010FA
:1027600011E0414960312068884202D14FF40010E5
:1027700009E03C4918312068884202D14FF400102A
:1027800001E04FF0006038494039C8605AE03649EE
:1027900030392068884201D1202050E03149783911
:1027A0002068884201D1202049E02F49303120683B
:1027B000884201D1202042E02A4918392068884205
:1027C00001D120203BE0284918392068884201D1F6
:1027D000C01434E0234960392068884201D1C01414
:1027E0002DE0214948312068884201D1C01426E0FB
:1027F0001C492068884201D1C01420E01A49206891
:10280000884202D14FF4001019E016494839206877
:10281000884202D14FF4001011E013496031206862
:10282000884202D14FF4001009E00E4918312068A7
:10283000884202D14FF4001001E04FF000600A49D5
:1028400040398860E06CE064112084F8350000BFF6
:10285000002084F8340000BFE06B10B12046E16B2B
:10286000884710BD886402404060024031B50024B2
:1028700000F01CF9044600BF00F018F9001B009995
:102880008842F9D338BD0000F0B502460B4600255A
:10289000002400200021DCE0012606FA01F51E6874
:1028A00006EA0504AC426ED15E68022E02D05E6874
:1028B000122E13D1CF0802F1200656F827004E073A
:1028C000F70E0F26BE40B0434F07FF0E1E69BE40F5
:1028D0003043CF0802F1200646F8270010684F0069
:1028E0000326BE40B0431E7906F003064F00BE40EB
:1028F000304310605E68012E08D05E68022E05D05D
:102900005E68112E02D05E68122E13D190684F00BF
:102910000326BE40B0434F00DE68BE4030439060A7
:10292000506801268E40B0431E79C6F300168E40D3
:1029300030435060D0684F000326BE40B0434F0084
:102940009E68BE403043D0605E6806F08056B6F1A7
:10295000805F7DD1414E366846F480463F4F3E60F1
:102960003F4E8F0856F827008E07370F0F26BE40C0
:10297000B0433C4EB24201D100262EE03A4EB24264
:1029800002D1012629E063E0384EB24201D102268D
:1029900023E0374EB24201D103261EE0354EB2424B
:1029A00001D1042619E0344EB24201D1052614E0CB
:1029B000324EB24201D106260FE0314EB24201D171
:1029C00007260AE02F4EB24201D1082605E02E4E1E
:1029D000B24201D1092600E00A268F073F0FBE4010
:1029E00030431F4E8F0846F82700284E3068A0431A
:1029F0005E6806F48036B6F5803F00D12043234E52
:102A00003060361D3068A0435E6806F40036B6F5C7
:102A1000003F00D120431D4E361D3060361D30680A
:102A2000A0435E6806F48016B6F5801F00D12043EF
:102A3000164E08363060361D3068A0435E6806F4D6
:102A40000016B6F5001F00D12043104E0C36306042
:102A5000491C1029FFF420AFF0BD000044380240AB
:102A60000838014000000240000402400008024013
:102A7000000C024000100240001402400018024006
:102A8000001C02400020024000240240003C0140A3
:102A9000024613690B400BB1012000E00020704793
:102AA0000AB1018300E041837047000001480068DB
:102AB000704700001800002070B50446002600256D
:102AC0000CB9012070BD94F8350010B9204600F013
:102AD00081F8022084F835002068006820F00100A9
:102AE0002168086000F0E2FE05463848B5FBF0F6C4
:102AF0002068466036496068884201D8701C07E04B
:102B00004FF4967070434FF47A71B0FBF1F0401CB3
:102B1000216808622E49606888420ED860684000CB
:102B2000B5FBF0F0C0F30B00042801D204202DE027
:102B300060684000B5FBF0F028E0A06828B9606844
:102B400000EB4000B5FBF0F008E0606800EBC0016E
:102B500001EB0010B5FBF0F040F48040C0F30B0037
:102B600008B9012012E0A06828B9606800EB4000B5
:102B7000B5FBF0F008E0606800EBC00101EB00106D
:102B8000B5FBF0F040F4804040F400402168C8619B
:102B9000D4E90701084321680860D4E90310084319
:102BA00021688860D4E9050108432168C86020686D
:102BB000006840F0010021680860002084F83600B9
:102BC000012084F8350000207CE7000040420F001F
:102BD000A086010010B586B004460D4920688842E1
:102BE00013D10C48006840F480000A4908604FF493
:102BF0004060019012200290002003900490042075
:102C0000059001A90448FFF73FFE06B010BD000083
:102C1000005800404038024000040240024800686A
:102C2000401C0149086070471800002010B50D488D
:102C3000006840F400700B4908600846006840F4E2
:102C4000806008600846006840F4807008600320D7
:102C500000F078F8002000F007F800F017F80020E6
:102C600010BD0000003C024070B5044600F002FEBA
:102C70004FF47A71B0FBF1F5284601F08EF800228E
:102C80002146501E00F01FF8002070BD7047000064
:102C900000BF00F01F0201219140034A430942F89E
:102CA000231000BF7047000080E200E000BF00F08A
:102CB0001F02012191404209920002F1E022C2F874
:102CC000001100BF70472DE9F05F80460D461646A3
:102CD000002701F0D9FF074639462A46334601F05E
:102CE0000700C0F1070ABAF1040F02D94FF0040A35
:102CF00001E0C0F1070AD14600F1040ABAF1070F5A
:102D000002D24FF0000A01E0A0F1030AD4464FF0CE
:102D1000010A0AFA09FAAAF1010A0AEA020A0AFAF7
:102D20000CFA4FF0010B0BFA0CFBABF1010B0BEAA9
:102D3000030B4AEA0B042146404601F0ADFFBDE813
:102D4000F09F000000BF00F00702064B19684FF625
:102D5000FF031940044B0B4343EA0221014B196066
:102D600000BF70470CED00E00000FA0510B5044606
:102D7000D4F8AC0302F012FE10BD70B504460D4647
:102D8000C5EBC50304F1300101EB8301CA68294694
:102D9000D4F8AC0302F05EFD70BD70B504460D467C
:102DA000C5EBC50304F5EA7101EB8301CA68294646
:102DB000D4F8AC0302F0AFFD70BD10B50446D4F8F2
:102DC000AC0302F0EEFD10BD70B504460D4605F0F3
:102DD0008000802808D105F07F00C0EBC00104F11D
:102DE000300000EB810605E0C5EBC50104F5EA7093
:102DF00000EB81060020B07005F07F003070C5F355
:102E0000C010707000BF94F87803012801D102202F
:102E100070BD012084F8780300BF3146206803F0BC
:102E200001FA00BF002084F8780300BF00BFEFE77D
:102E30002DE9F04705460E4690461F464FF0000923
:102E400006F08000802808D106F07F00C0EBC001AA
:102E500005F1300000EB810407E006F07F00C0EBD5
:102E6000C00105F5EA7000EB810406F07F002070D8
:102E700006F08000C0096070C4F80880E7706078D0
:102E800008B12078E080022F01D10020207100BF1E
:102E900095F87803012802D10220BDE8F0870120CF
:102EA00085F8780300BF2146286803F03DF800BF8D
:102EB000002085F8780300BF4846EEE72DE9F04191
:102EC00004460E461746984606F07F00C0EBC00148
:102ED00004F5EA7000EB8105EF60C5F8148000206E
:102EE000A861687006F07F0028702069012800D171
:102EF0002F6100BF94F87803012802D10220BDE8B9
:102F0000F081012084F8780300BF06F07F0028B923
:102F1000227C2946206803F08BF804E0227C2946B5
:102F2000206803F009FA00BF002084F8780300BF8E
:102F300000BFE4E770B504460D4605F08000802828
:102F400008D105F07F00C0EBC00104F1300000EBB8
:102F5000810605E0C5EBC50104F5EA7000EB8106CA
:102F60000120B07005F07F003070C5F3C0107070A4
:102F700000BF94F87803012801D1022070BD012020
:102F800084F8780300BF3146206803F08FF905F01C
:102F90007F0028B9217C04F55F72206803F020F9D6
:102FA00000BF002084F8780300BF00BFE6E72DE9EA
:102FB000F04104460E461746984606F07F00C0EBE7
:102FC000C00104F1300000EB8105EF60C5F814800A
:102FD0000020A8610120687006F07F002870206939
:102FE000012800D12F6100BF94F87803012802D195
:102FF0000220BDE8F081012084F8780300BF06F0CC
:103000007F0028B9227C2946206803F011F804E0EB
:10301000227C2946206803F08FF900BF002084F845
:10302000780300BF00BFE4E72DE9F84F04462668A7
:103030004FF0000AD346D04600250020009000271C
:10304000206803F01BFB002867D1206803F04EFBCB
:1030500008B9BDE8F88F206803F048FB00F00200D3
:10306000022801D121684861206803F03FFB00F489
:103070000020B0F5002F7CD10025206803F00CFB68
:10308000834673E00BF0010000286CD0E9B22068A1
:1030900003F021FB804608F00100E8B3012106F5AA
:1030A000306000EB45108160206901282BD1C5EB11
:1030B000C50104F5EA7000EB8100816806F5306017
:1030C00000EB45100069C0F31200091AC5EBC502F8
:1030D00004F5EA7000EB82008161C5EBC50104F5DF
:1030E000EA7000EB8100C5EBC502C16804F5EA7027
:1030F00000EB820080680144C5EBC50204F5EA706C
:1031000000EB8200C160E9B22046FFF746FE20696D
:10311000012811D105B901E00EE01DE2C5EBC501A2
:1031200004F5EA7000EB8100406928B904F55F728C
:103130000121206803F054F808F00800082808D19D
:10314000204600F05DFA082106F5306000EB4510DE
:10315000816008F01000102805D1102106F53060BC
:1031600000EB451081606D1C4FEA5B0BBBF1000F5B
:1031700088D1206803F0BAFA00F48020B0F5802FDF
:103180007ED1206803F07FFA8346002583E00BF0B0
:10319000010000287CD0E9B2206803F086FA80465E
:1031A00008F00100F0B30120A840009040F6340080
:1031B00080590099884340F634018851012106F571
:1031C000106000EB451081602069012815D1C5EB26
:1031D000C50104F1300000EB8100C5EBC502C168F8
:1031E00004F1300000EB820080680144C5EBC502A9
:1031F00004F1300000EB8200C160E9B22046FFF725
:10320000BCFD2069012810D165B9C5EBC50104F1E9
:10321000300000EB8100406920B904F55F720121A4
:10322000206800E001E002F0DBFF08F00800082859
:1032300005D1082106F5106000EB4510816008F00B
:103240001000102805D1102106F5106000EB451084
:10325000816008F04000402805D1402106F510604B
:1032600000EB4510816008F00200022805D1022120
:1032700006F5106000EB4510816008F0800001E069
:103280000DE005E0802803D12946204601F02CFD01
:103290006D1C4FEA5B0BBBF1000F7FF478AF206829
:1032A00003F024FA00F00040B0F1004F0ED140F6D8
:1032B0000400805920F0010140F6040081512046AD
:1032C00000F077F94FF0004021684861206803F072
:1032D0000DFA00F40060B0F5006F0CD140F6080064
:1032E000805900F0010010B1204600F092F94FF42F
:1032F000006021684861206803F0F8F900F480500C
:10330000B0F5805F5AD140F60400805920F00101E9
:1033100040F6040081510021206803F075F94FF058
:10332000000A0CE0FF2106F5106000EB4A108160F6
:1033300006F5306000EB4A1081600AF1010A60680E
:103340005045EFD84FF0FF3140F618008151001D75
:10335000805940F0011140F61C008151A06A70B103
:10336000D6F8840840F00B01C6F8841840F64400F3
:10337000805940F00B0140F6440081510EE040F6C8
:103380001400805940F00B0140F614008151001FD9
:10339000805940F00B014FF401608151D6F80008CC
:1033A00020F4FE60C6F80008217C04F55F722068F6
:1033B00002F016FF4FF4805021684861206803F046
:1033C00095F900F40050B0F5005F29D1206802F0B3
:1033D0000DFE2068C06820F470502168C860206825
:1033E00003F02AF958B90021E1604FF400716161DE
:1033F0002068C06840F410502168C86009E00321CB
:10340000E160402161612068C06840F4A0502168FB
:10341000C860204600F0B4F84FF4005021684861BD
:10342000206803F063F900F01000102843D12068F1
:10343000806920F0100021688861376A07F00F006A
:10344000C0EBC00104F5EA7000EB8109C7F343400B
:10345000022819D147F6F070384030B3C7F30A128A
:103460003046D9F80C1003F047F9C7F30A11D9F820
:103470000C000844C9F80C00C7F30A11D9F8180069
:103480000844C9F8180010E0C7F3434006280CD1DF
:10349000082204F55F71304603F02EF9C7F30A11D4
:1034A000D9F818000844C9F818002068806940F06D
:1034B000100021688861206803F018F900F0080006
:1034C000082805D1204600F07BF8082021684861D3
:1034D000206803F00BF900F48010B0F5801F07D1CD
:1034E000E9B2204600F03AF84FF4801021684861B4
:1034F000206803F0FBF800F40010B0F5001F07D1BE
:10350000E9B2204600F033F84FF40010216848611A
:10351000206803F0EBF800F08040B0F1804F06D156
:103520002046FFF723FC4FF0804021684861206867
:1035300003F0DCF800F0040004280DD1206847688F
:1035400007F00400042802D12046FFF736FC20686B
:10355000406838432168486000BF7AE570B504468A
:103560000D462946D4F8AC0302F044FA70BD70B59C
:1035700004460D462946D4F8AC0302F03EFA70BD6D
:1035800070B504460125E06810B1022804D101E0BD
:10359000002503E0012501E0012500BF00BF294609
:1035A000D4F8AC0302F086FAD4F8AC0302F048FA7F
:1035B00070BD10B50446D4F8AC0302F063FA10BD38
:1035C00010B50446D4F8AC0302F063FA10BD70B530
:1035D00004460D4600BF94F87803012801D102206B
:1035E00070BD012084F8780300BF2946206803F0ED
:1035F00097F800BF002084F8780300BF00BFEFE712
:1036000010B5044604F55F71D4F8AC0302F060FA1B
:1036100010BD10B50446D4F8AC0302F09AFA10BD00
:1036200070B504460D4600269048006800F00F0073
:10363000A8427ED28D490D700846006800F00F0048
:10364000A84201D0012070BD207800F002000228BD
:1036500007D18748006820F0F000A168084384493A
:103660000860207800F0010000283BD06068012845
:1036700007D17F4808380068C0F34040A0B9012056
:10368000E1E76068022807D1794808380068C0F38C
:10369000406048B90120D6E7754808380068C0F393
:1036A000400008B90120CEE77148006820F003000F
:1036B000616808436E490860FFF7F8F906466068DC
:1036C000012810D108E0FFF7F1F9801B41F28831A1
:1036D000884201D90320B6E76548006800F00C0075
:1036E0000428F0D1A2E06068022810D108E0FFF7BA
:1036F000DDF9801B41F28831884201D90320A2E71D
:103700005B48006800F00C000828F0D18EE009E06A
:10371000FFF7CCF9801B41F28831884202D903209F
:1037200091E706E05248006800F00C000028EFD155
:103730007CE0207800F00200022807D14C480068A5
:1037400020F0F000A168084349490860207800F0A3
:103750000100002860D06068012807D1444808387B
:103760000068C0F34040A0B901206CE760680228FF
:1037700007D13F4808380068C0F3406048B90120CD
:1037800061E73B4808380068C0F3400008B90120F1
:1037900059E73748006820F003006168084334495E
:1037A0000860FFF783F906466068012810D108E039
:1037B000FFF77CF9801B41F28831884201D9032050
:1037C00041E72B48006800F00C000428F0D123E00A
:1037D0006068022810D108E0FFF768F9801B41F209
:1037E0008831884201D903202DE72148006800F084
:1037F0000C000828F0D10FE008E0FFF757F9801B14
:1038000041F28831884201D903201CE7184800683A
:1038100000F00C000028F0D114490D700846006833
:1038200000F00F00A84201D001200CE7207800F042
:103830000400042807D10E48006820F4E050E16835
:1038400008430B490860207800F00800082808D1D8
:103850000748006820F46040216940EAC10004493B
:1038600008600020FFF700FA0020ECE6003C024070
:103870000838024000B500F02FF80949096801F046
:10388000F001F02292FAA2F2B2FA82F2D140054A95
:10389000515CC840044908600846006800BD00004B
:1038A00008380240086D00080400002000B5FFF74A
:1038B000E1FF0749096801F4E0514FF4E05292FA40
:1038C000A2F2B2FA82F2D140024A515CC84000BD75
:1038D00008380240086D000870B50021002200235E
:1038E00000202B4C246804F00C0424B1042C04D0D8
:1038F000082C48D103E0274847E0274845E0244CFE
:10390000241F246804F03F01214C241F246804F480
:1039100080044FF4800595FAA5F5B5FA85F5EC40DD
:1039200084B11D4CB4FBF1F5194C241F246847F6F3
:10393000C076344096FAA6F6B6FA86F6F44005FB51
:1039400004F20FE0134CB4FBF1F5114C241F246872
:1039500047F6C076344096FAA6F6B6FA86F6F440F4
:1039600005FB04F20A4C241F246804F440344FF48D
:10397000403595FAA5F5B5FA85F5EC40641C630071
:10398000B2FBF3F001E0034800BF00BF70BD0000D0
:10399000083802400024F40000127A0070B5044692
:1039A0000025207800F00100002867D0F648006864
:1039B00000F00C0004280DD0F348006800F00C0063
:1039C000082813D1F048001F006800F48000B0F50B
:1039D000800F0BD1EC4808380068C0F34040002845
:1039E0004CD06068012849D0012070BD0020E64914
:1039F000891F0870FFF75AF8054608E0FFF756F8E8
:103A0000401B41F28831884201D90320EDE7DE48AE
:103A100008380068C0F340400028EFD12079DA4927
:103A2000891F08706068012814D1FFF73FF8054628
:103A300008E0FFF73BF8401B41F28831884201D98A
:103A40000320D2E7D04808380068C0F3404000287F
:103A5000EFD013E0FFF72AF8054608E0FFF726F855
:103A6000401B41F28831884201D90320BDE7C64896
:103A700008380068C0F340400028EFD1207800F0FB
:103A80000200022869D1C048006800F00C0058B15B
:103A9000BD48006800F00C00082821D1BA48001F7A
:103AA000006800F48000D8B9B74808380068C0F34F
:103AB000400020B1E068012801D0012095E7B2481C
:103AC0000838006820F0F800F82292FAA2F2B2FA60
:103AD00082F2216991400843AB49083908603CE013
:103AE000E06828B30120A9490860FEF7DFFF05461A
:103AF00006E0FEF7DBFF401B642801D9032074E7D2
:103B0000A14808380068C0F340000028F1D09E4862
:103B10000838006820F0F800F82292FAA2F2B2FA0F
:103B200082F221699140084397490839086014E0FE
:103B3000002096490860FEF7B9FF054606E0FEF74B
:103B4000B5FF401B642801D903204EE78E48083892
:103B50000068C0F340000028F1D1207800F0080090
:103B600008282CD16069A8B1012089490860FEF7B6
:103B70009DFF054606E0FEF799FF401B642801D92A
:103B8000032032E780486C300068C0F34000002812
:103B9000F1D014E000207E490860FEF787FF05465B
:103BA00006E0FEF783FF401B642801D903201CE7D1
:103BB00075486C300068C0F340000028F1D12078CF
:103BC00000F00400042866D16F483830006840F0E7
:103BD00080506D49383108606E48006840F480704C
:103BE0006C490860FEF762FF054606E0FEF75EFFDF
:103BF000401B642801D90320F7E66648006800F4FA
:103C000080700028F2D000205F4968310870FEF70C
:103C10004DFF054608E0FEF749FF401B41F28831A1
:103C2000884201D90320E0E6574868300068C0F3B5
:103C300040000028EFD1207A534968310870A0680D
:103C4000012814D1FEF732FF054608E0FEF72EFFEB
:103C5000401B41F28831884201D90320C5E64A4819
:103C600068300068C0F340000028EFD013E0FEF792
:103C70001DFF054608E0FEF719FF401B41F28831A1
:103C8000884201D90320B0E63F4868300068C0F39D
:103C900040000028EFD1A069F0B33B48006800F075
:103CA0000C0008286BD0A069022852D100203749A7
:103CB0000866FEF7FBFE054606E0FEF7F7FE401B32
:103CC000642801D9032090E62F4808380068C0F323
:103CD00040600028F1D1206A40F0005047F6C072E1
:103CE00092FAA2F2B2FA82F2616A9140084301228A
:103CF000A16AC2EB51014FF4403292FAA2F2B2FA39
:103D000082F291400843E16908434FF0706292FAF1
:103D1000A2F2B2FA82F200E033E0E16A9140084395
:103D20001949091F0860012018490866FEF7BEFE00
:103D3000054606E0FEF7BAFE401B642801D90320C1
:103D400053E6114808380068C0F340600028F1D0FD
:103D500017E000200D490866FEF7A8FE054606E0BC
:103D6000FEF7A4FE401B642801D903203DE6064867
:103D700008380068C0F340600028F1D101E001205C
:103D800033E6002031E600000838024000004742D8
:103D9000800E474200700040704770B504462546CB
:103DA000681EB0F1807F01D301200FE0681E4FF044
:103DB000E02148610F214FF0FF3000F06DFF00203F
:103DC0004FF0E021886107200861002070BD10B528
:103DD000FFF7E2FF10BD70477047024600BF92F840
:103DE0003800012801D102207047012082F83800F4
:103DF00000BF022082F83900D1E9000318438B6824
:103E00001843CB6818430B6918434B6918438B69F7
:103E1000184313685864012082F8390000BF00205D
:103E200082F8380000BF00BFDEE7024600BF92F80C
:103E30003800012801D102207047012082F83800A3
:103E400000BF022082F839001068406820F070003E
:103E500013685860106840680B681843136858600E
:103E60001068806820F0800013689860106880688F
:103E70004B68184313689860012082F8390000BF2E
:103E8000002082F8380000BF00BFD5E710B5044617
:103E90000CB9012010BD94F8390010B9204600F08B
:103EA0000DF8022084F83900211D206800F0EEFF93
:103EB000012084F839000020ECE7000010B586B03E
:103EC000044625492068884211D12448006840F002
:103ED0002000224908600720FEF734FF0022114627
:103EE0003720FEF7F0FE3720FEF7E0FE31E01C49F8
:103EF0002068884215D11948001D006840F48020D0
:103F00001649091D08604815019002200290002002
:103F1000039004900320059001A91248FEF7B4FC19
:103F200017E011492068884213D10C48006840F01E
:103F300040000A4908604FF480400190022002903E
:103F40000020039004900920059001A90548FEF780
:103F50009BFC06B010BD0000001400404038024039
:103F60000048014000040240001800400146086873
:103F7000C06840F001000A68D0600868006840F03E
:103F800001000A681060002070472DE9F0410446E6
:103F90000D46002600BF94F83800012802D1022007
:103FA000BDE8F081012084F8380000BF022084F8C9
:103FB00039002068866826F0770626F47F46206858
:103FC0008660286850283BD00CDC202860D004DCB8
:103FD000002853D0102865D155E030285DD0402806
:103FE00060D141E0602835D070280DD0B0F5805FF9
:103FF00003D0B0F5005F55D115E02068806820F04F
:104000000700216888604EE0D5E902136A682068DD
:1040100000F0AEFF2068866826F0770646F0770647
:10402000206886603FE0D5E902136A68206800F0E6
:104030009FFF2068806840F480402168886032E0FB
:10404000EA686968206801F089F85021206800F06A
:104050009BFF28E0EA686968206801F0DDF86021CC
:10406000206800F091FF1EE0EA686968206801F0AE
:1040700075F84021206800F087FF14E000212068D7
:1040800000F082FF0FE01021206800F07DFF0AE0C1
:104090002021206800F078FF05E03021206800F042
:1040A00073FF00E000BF00BF012084F8390000BFAB
:1040B000002084F8380000BF00BF71E72DE9F0410F
:1040C00004460D464FF000080026002714B90120D1
:1040D000BDE8F08194F8390010B9204600F046F8A8
:1040E000022084F839002068806820F007002168E9
:1040F0008860211D206800F0C9FE2068D0F8088083
:10410000206886692068076A286840EA080840F243
:1041100003308643A969A86840EA0120064340F6B7
:104120000C4086434FF2F0008643E969E86840EAB4
:104130000120064328690001296A40EA013006434C
:1041400027F0220727F088076969686840EA0110AC
:1041500007432068C0F808802068866120680762ED
:10416000012084F839000020B2E7000010B586B0C5
:1041700004462068B0F1804F13D11648006840F023
:1041800001001449086022200190022002900020C2
:10419000039004900120059001A90F48FEF774FBDD
:1041A00016E00E492068884212D10A48006840F0A3
:1041B000020008490860C0200190022002900020FF
:1041C000039004900220059001A90348FEF75CFBD0
:1041D00006B010BD4038024000000240000400401C
:1041E00070472DE9F04104460D46164600BF94F88D
:1041F0003800012802D10220BDE8F081012084F8B6
:10420000380000BF022084F8390096B9EB68D5E980
:104210000012206800F0B8FF2068806920F00C00D0
:104220002168886120688069A968084321688861DD
:104230003DE0042E13D1EB68D5E90012206801F0AF
:1042400001F82068806920F4406021688861206856
:104250008069A96840EA01202168886127E0082E6A
:1042600012D1EB68D5E90012206801F005F820684A
:10427000C06920F00C002168C8612068C069A96885
:1042800008432168C86112E0EB68D5E90012206894
:1042900001F00BF82068C06920F440602168C86113
:1042A0002068C069A96840EA01202168C86101202E
:1042B00084F8390000BF002084F8380000BF00BF38
:1042C0009AE710B504460CB9012010BD94F83900E6
:1042D00010B9204600F00CF8022084F83900211DA6
:1042E000206800F0D3FD012084F839000020ECE7BD
:1042F000704710B5044620680069C0F34000D8B18B
:104300002068C068C0F34000B0B16FF002002168BF
:104310000861012020762068806900F0030018B150
:104320002046FFF75DFF05E0204600F0ADF820468F
:1043300000F08EF90020207620680069C0F380002C
:10434000D8B12068C068C0F38000B0B16FF004003D
:1043500021680861022020762068806900F440709E
:1043600018B12046FFF73CFF05E0204600F08CF82E
:10437000204600F06DF90020207620680069C0F327
:10438000C000D8B12068C068C0F3C000B0B16FF001
:10439000080021680861042020762068C06900F0C8
:1043A000030018B12046FFF71BFF05E0204600F090
:1043B0006BF8204600F04CF9002020762068006958
:1043C000C0F30010D8B12068C068C0F30010B0B1CD
:1043D0006FF0100021680861082020762068C0690D
:1043E00000F4407018B12046FFF7FAFE05E02046C1
:1043F00000F04AF8204600F02BF9002020762068D3
:10440000006900F0010058B12068C06800F00100A8
:1044100030B16FF0010021680861204600F01AF900
:1044200020680069C0F3C01058B12068C068C0F3AC
:10443000C01030B16FF08000216808612046FFF79E
:10444000CAFC20680069C0F3801058B12068C068B9
:10445000C0F3801030B16FF0400021680861204641
:1044600000F06DF920680069C0F3401058B1206871
:10447000C068C0F3401030B16FF0200021680861BF
:104480002046FFF7A9FC10BD704770B504460D46E5
:104490000CB9012070BD94F8390010B9204600F025
:1044A00017F8022084F83900211D206800F0EEFC86
:1044B0002068006820F00800216808602068006813
:1044C000284321680860012084F839000020E1E7D2
:1044D000704770B504460D46164600BF94F8380084
:1044E000012801D1022070BD012084F8380000BFEE
:1044F000022084F8390036B1042E1BD0082E31D0AA
:104500000C2E5ED145E02946206800F047FD20686A
:10451000806940F00800216888612068806920F087
:10452000040021688861206880692969084321683E
:10453000886147E02946206800F068FD20688069AE
:1045400040F40060216888612068806920F4806000
:104550002168886120688069296940EA0120216812
:1045600088612FE02946206800F08CFD2068C06932
:1045700040F008002168C8612068C06920F004008C
:104580002168C8612068C069296908432168C86139
:1045900018E02946206800F0B1FD2068C06940F4A9
:1045A00000602168C8612068C06920F480602168CB
:1045B000C8612068C069296940EA01202168C86192
:1045C00000E000BF00BF012084F8390000BF0020D8
:1045D00084F8380000BF00BF85E710B504460CB969
:1045E000012010BD94F8390010B9204600F00CF8F5
:1045F000022084F83900211D206800F047FC0120CA
:1046000084F839000020ECE710B586B004460D4967
:104610002068884213D10C48006840F001000A4924
:1046200008604FF470600190022002900020039017
:1046300004900120059001A90448FEF725F906B071
:1046400010BD00000000014044380240001002404C
:104650007047000010B5044603492068884201D124
:1046600002F0C8F910BD0000001400402DE9F0412F
:1046700004460D4600260027B04600BF94F83800D7
:10468000012802D10220BDE8F081012084F8380021
:1046900000BF022084F839002068866826F0700682
:1046A0006868064326F00706286806432068866087
:1046B000686800F00F01002935D10011082832D2B6
:1046C000DFE800F02D2E2F300B212704D5E903134E
:1046D000AA68206800F04CFC26E02068D0F8208012
:1046E0002068006A20F0010021680862206887695C
:1046F00027F0F007286947EA0017206887612068DB
:10470000C0F8208010E02A69A968206800F026FD22
:104710000AE02A69A968206800F07EFD04E003E051
:1047200002E001E000E000BF00BF012084F8390092
:1047300000BF002084F8380000BF00BFA3E7704727
:10474000704770B50446002500262068006800F018
:1047500001052068C06800F4807665B15EB100BFD5
:10476000206800682068406800BF94F83A0040F074
:10477000010084F83A0020680068C0F34005206812
:10478000406900F0010665B15EB100BF20680068B5
:104790002068406800BF94F83A0040F0040084F8B4
:1047A0003A0020680068C0F380052068406900F086
:1047B000010665B15EB100BF2068006820684068EE
:1047C00000BF94F83A0040F0020084F83A002068F4
:1047D0000068C0F3C0052068406900F0010665B1BB
:1047E0005EB100BF206800682068406800BF94F890
:1047F0003A0040F0080084F83A0020680068C0F3EE
:1048000040152068C06800F020061DB116B1204692
:1048100000F065FD20680068C0F3C0152068C0681E
:1048200000F080061DB116B1204600F0B6FD94F8E8
:104830003A0028B1012084F839002046FFF780FFB4
:1048400070BD70477047000010B51C48006840F408
:1048500080001A4908600846006840F400100860AB
:104860000720FEF76FFA002211463A20FEF72BFAD6
:104870003A20FEF71BFA0720FEF764FA00221146E1
:104880001120FEF720FA1120FEF710FA0720FEF79C
:1048900059FA002211464620FEF715FA4620FEF787
:1048A00005FA0720FEF74EFA002211461020FEF707
:1048B0000AFA1020FEF7FAF910BD00003038024065
:1048C00000B585B05348006840F080005149086049
:1048D0000846006840F0010008600846006840F0A3
:1048E000040008600846006840F0020008600846BE
:1048F000006840F0100008600846006840F00800BA
:104900000860112000900020019002906946424802
:10491000FDF7BAFF10200090002001900290694638
:104920003E48FDF7B1FF4FF4487000900120019020
:1049300000200290039069463848FDF7A5FF042047
:1049400000900120019000200290039069463448B5
:10495000FDF79AFF4FF4E140009001200190002004
:104960000290039069462F48FDF78EFF4FF40040F8
:10497000009000200190029069462A48FDF784FFCC
:104980004FF4405000900020019002906946244866
:10499000FDF77AFF4FF6C0700090012001900020D3
:1049A00002900320039069461F48FDF76DFF4FF406
:1049B000E060009001200190002002900390694681
:1049C0001548FDF761FF2F20009011200190002075
:1049D00002900320039069461348FDF755FF2020FD
:1049E000009001200190002002900320039069466E
:1049F0000B48FDF749FF4FF48070009011200190A3
:104A0000002002900320039069460548FDF73CFF13
:104A100005B000BD303802400000024000080240EE
:104A20000004024000100240000C024010B50A4889
:104A30000A4908600A484860002108488160C1604E
:104A40004FF480410161002141618161C1610162D6
:104A5000FEF732F810BD0000005800402000002092
:104A6000A086010000B587B00F48104908600020FB
:104A7000486000210D488160C1600161FFF706FABE
:104A80000A48FFF7AAFD08210848FFF7FEFC60204E
:104A90000090002001900290049000226946034893
:104AA000FFF717FD07B000BD004801404801002096
:104AB00000B58DB01A481B490860002048600021ED
:104AC00018488160C1600161FFF7E0F94FF4805040
:104AD000099009A91348FFF758FA1248FFF7F1FBAC
:104AE00000200590012006900020079008900022E9
:104AF00005A90C48FFF775FB02200690042205A9C2
:104B00000848FFF76EFB0420009050200190002021
:104B10000290049069460348FFF7A8FD0DB000BD60
:104B2000001800408401002000B591B01B481C49CA
:104B3000086000204860002119488160C16001615F
:104B40004161FFF74AFD60200A9000200B900C9015
:104B50000D900E900F90109000220AA91048FFF7B8
:104B6000B8FC04220AA90E48FFF7B3FC002003900A
:104B700004900590069007904FF400500890002094
:104B8000099003A90648FFF728F900200190029038
:104B900001A90348FFF749F911B000BD0000014029
:104BA0005800002000B58BB04FF0804012490860DB
:104BB00000204860002110488160C160016101202F
:104BC00002900020039001200490002005900690A0
:104BD000079001200890002009900A9002A9064839
:104BE000FFF76CFA00200090019069460248FFF739
:104BF0001CF90BB000BD00009400002000B58BB084
:104C00001248134908600020486000211048816064
:104C1000C1600161012002900020039001200490F6
:104C20000020059006900790012008900020099030
:104C30000A9002A90648FFF741FA0020009001906F
:104C400069460348FFF7F1F80BB000BD00040040CF
:104C5000D00000201CB50A480A490860542048606A
:104C60000021084881606421C160FFF70FF900202E
:104C70000090019069460348FFF7D7F81CBD00007B
:104C8000001400400C01002002480068C0F302201C
:104C9000704700000CED00E010B5002807DA0A07A5
:104CA000140E054A00F00F031B1FD45403E00A073B
:104CB000130E024A135410BD18ED00E000E400E0AA
:104CC00010B54320FDF7E4FF0148FEF7ADF910BD34
:104CD0007803002010B52A20FDF7DAFF0148FEF71F
:104CE000A3F910BD780300202DE9F84F07460E46C2
:104CF000D7F800800025AA46C6EBC60107F13000B0
:104D000000EB8104D4E90501451AA068A84200D24D
:104D1000A568E81CC11700EB91714FEAA1091AE0E0
:104D2000D4E90501451AA068A84200D2A568E81C8C
:104D3000C11700EB91714FEAA109387CABB2F2B216
:104D400000904046E16801F0FDFCE0682844E06026
:104D5000A0692844A06108F5106000EB4610806946
:104D600080B2484506D9D4E90510884202D260696C
:104D70000028D5D1002D0CDC012000FA06FA40F6FF
:104D8000340050F8080020EA0A0040F6340141F8E7
:104D900008000020BDE8F88F10B5FDF73FFFFFF7D2
:104DA00016F810BD00B591B01848006840F080506A
:104DB000164908601648006840F4404014490860ED
:104DC00001200090052001900220069041050791E6
:104DD000082108914FF4A871099102210A91072135
:104DE0000B916846FEF7DAFD0D200C9002200D9025
:104DF00000200E904FF4A0500F904FF48050109070
:104E000005210CA8FEF70CFC11B000BD4038024093
:104E1000007000401448006840F4700012490860B7
:104E20001248006840F001001049086000200F4956
:104E3000083108600D4800680D4908400B490860BA
:104E40000C48091D0860081F006820F48020091F15
:104E50000860002005490C3108604FF000600249ED
:104E6000803908607047000088ED00E0003802409B
:104E7000FFFFF6FE1030002410B53720FDF708FFC5
:104E80000148FFF736FA10BD0C010020002202682D
:104E90002C4B98420ED0B0F1804F0BD02A4B984249
:104EA00008D02A4B984205D0294B984202D0294B72
:104EB000984201D1012300E000231BB122F07002CF
:104EC0004B681A431F4B984220D0B0F1804F1DD041
:104ED0001D4B98421AD01D4B984217D01C4B98423C
:104EE00014D01C4B984211D01B4B98420ED01B4B38
:104EF00098420BD01A4B984208D01A4B984205D0D2
:104F0000194B984202D0194B984201D1012300E07D
:104F100000231BB122F44072CB681A4302608B68F5
:104F2000C3620B688362074B984202D0094B9842D8
:104F300001D1012300E000230BB10B6903630123BE
:104F40004361704700000140000400400008004039
:104F5000000C0040000401400040014000440140BA
:104F60000048014000180040001C004000200040A4
:104F700030B50C460021816821F47F4142EA0325C7
:104F800025432943816030BD0A460021816821F014
:104F9000700142F0070319438160704730B5002467
:104FA00000220023056A25F001050562026A4368B4
:104FB000846924F0700424F003040D682C4322F06B
:104FC00002028D682A430F4DA84202D00E4DA8421E
:104FD00001D1012500E000256DB122F00802CD6865
:104FE0002A4322F0040223F4807323F400734D69F2
:104FF0002B438D692B43436084614D684563026296
:1050000030BD0000000001400004014030B5002424
:1050100000220023056A25F010050562026A436834
:10502000846924F4E04424F440740D6844EA0524BF
:1050300022F020028D6842EA0512104DA84202D0EB
:105040000F4DA84201D1012500E0002585B122F0D5
:105050008002CD6842EA051222F0400223F4806308
:1050600023F400634D6943EA85038D6943EA8503B0
:10507000436084614D688563026230BD0000014079
:105080000004014030B5002400220023056A25F405
:1050900080750562026A4368C46924F0700424F0D4
:1050A00003040D682C4322F400728D6842EA052245
:1050B000104DA84202D0104DA84201D1012500E0B8
:1050C000002585B122F40062CD6842EA052222F46F
:1050D000806223F4805323F400534D6943EA05139F
:1050E0008D6943EA05134360C4614D68C56302627C
:1050F00030BD0000000001400004014030B5002236
:1051000000230024056A25F480550562036A44687B
:10511000C26922F4E04222F440720D6842EA05229C
:1051200023F400538D6843EA05330A4DA84202D0A8
:10513000094DA84201D1012500E0002525B124F444
:1051400080444D6944EA85144460C2614D68056439
:10515000036230BD000001400004014030B50B4641
:10516000144600210022026A056A25F00105056245
:10517000816921F0F00141EA041122F00A021A4388
:105180008161026230BD000070B50C4615460021F9
:105190000022066A26F0010606628169026A174E3D
:1051A000B04214D0B0F1804F11D0154EB0420ED0A5
:1051B000144EB0420BD0144EB04208D0134EB04241
:1051C00005D0134EB04202D0124EB04201D101269A
:1051D00000E000261EB121F00301294303E021F085
:1051E000030141F0010121F0F00141EA031122F035
:1051F0000A0222438161026270BD0000000001408A
:105200000004004000080040000C00400004014081
:10521000004001400018004030B50B461446002104
:105220000022056A25F0100505628169026A21F4F1
:10523000704141EA043122F0A00242EA0312816186
:10524000026230BD70B50C46154600210022066A88
:1052500026F0100606628169026A21F4407141EA73
:10526000052121F4704141EA033122F0A00242EA13
:1052700004128161026270BD70B50C4615460021B2
:105280000022066A26F480760662C169026A21F06D
:105290000301294321F0F00141EA031122F42062C5
:1052A00042EA0422C161026270BD70B50C46154627
:1052B00000210022066A26F480560662C169026A4D
:1052C00021F4407141EA052121F4704141EA0331A2
:1052D00022F4204242EA0432C161026270BD70B51C
:1052E0000446002694F83960222E01D0322E52D185
:1052F000A068B0F5805F13D1A56A206940B9206825
:105300004068C0F308002880A06A801CA06219E0F1
:1053100020684068C0B22880A06A401CA06211E0EA
:10532000206938B920684068C1B2A26A501CA062E6
:10533000117007E02068406800F07F01A26A501CED
:10534000A0621170E08D401E80B2E08508BB20682D
:10535000C06820F020002168C86094F83900322825
:1053600003D1122084F839000EE02068C06820F4D0
:1053700080702168C8602068406920F001002168C1
:105380004861012084F839002046FFF75AFA0020CE
:1053900070BD0020FCE70220FAE770B50446002645
:1053A00094F83960122E01D0322E4CD1A068B0F59D
:1053B000805F0FD1256A2888C0F308002168486003
:1053C000206918B9206A801C206209E0206A401C0C
:1053D000206205E0216A481C206208782168486044
:1053E000E08C401E80B2E08458BB2068C06820F08A
:1053F00080002168C86094F83900322803D1222047
:1054000084F839000EE02068C06820F480702168BC
:10541000C8602068406920F00100216848610120CF
:1054200084F8390045F2F05300224021204600F074
:105430000CF808B1032070BD2046FFF703FA0020E6
:10544000F9E70020F7E70220F5E72DE9F0410446EF
:105450000E4617461D464FF00008FDF727FB804615
:105460009FBB2BE0681C48B32DB1FDF71FFBA0EBE1
:105470000800A84222D92068C06820F08000216876
:10548000C8602068C06820F020002168C8602068DB
:10549000C06820F480702168C8602068406920F0EE
:1054A000010021684861012084F8390000BF002014
:1054B00084F8380000BF0320BDE8F0812068006850
:1054C0003040B04202D1012001E003E0002000287A
:1054D000C8D035E02AE0681C40B32DB1FDF7E6FAEC
:1054E000A0EB0800A84221D92068C06820F0800005
:1054F0002168C8602068C06820F020002168C8606A
:105500002068C06820F480702168C8602068406905
:1055100020F0010021684861012084F8390000BFB3
:10552000002084F8380000BF0320C5E72068006829
:105530003040B04201D1012000E000200028CAD153
:105540000020B9E710B52520FDF7A2FB0148FFF7C1
:10555000F8F810BDC001002010B52620FDF798FB1B
:105560000148FFF7EEF810BDFC01002070B50446BD
:105570000D46D4F814022946426820469047002080
:1055800070BD70B504460D4694F8FC01022802D0A7
:10559000032811D100E000BF688801280BD100204A
:1055A000C4F80402D4F814022946826820469047C1
:1055B000204600F04AF804E02946204600F01BF897
:1055C00000BF00BF70BD70B506460C4615462B46A1
:1055D00022460021304600F023FA002070BD70B54D
:1055E00006460C4615462B4622460021304600F062
:1055F000BAFA002070BD70B504460D4680212046E1
:1056000000F09DFA0021204600F099FA70BD10B517
:1056100004460520C4F8F40100231A461946204622
:1056200000F0FEF9002010BD70B504460E46154688
:105630000220C4F8F401A561E5612B463246002141
:10564000204600F090FA002070BD10B504460420FA
:10565000C4F8F40100231A461946204600F083FAE4
:10566000002010BD70B504460D46E888012804D01E
:1056700029462046FFF7BFFF1BE094F8FC010228F3
:1056800002D003280FD108E00020A060012204F11D
:1056900008012046FFF7C8FF0AE00122211D20462D
:1056A000FFF7C2FF04E029462046FFF7A4FF00BF32
:1056B00000BF70BDF8B504460E4670880012082879
:1056C0007FD2DFE800F07E040C207E7E5F6D207CC0
:1056D000D4F810120A6869469047054676E0207CA7
:1056E00040B9D4F81402816A684688470546022109
:1056F000697007E0D4F81402C16A68468847054615
:105700000221697062E0B078062834D2DFE800F048
:10571000030B131B232B207CD4F810124A68694614
:10572000904705462CE0207CD4F810128A68694620
:105730009047054624E0207CD4F81012CA686946D8
:10574000904705461CE0207CD4F810120A6969468F
:105750009047054614E0207CD4F810124A69694647
:10576000904705460CE0207CD4F810128A696946FF
:105770009047054604E031462046FFF73CFFF8BD60
:1057800000BF23E0207C30B9D4F81402416B684696
:10579000884705461AE031462046FFF72CFFEEE722
:1057A000207C48B9D4F81402016B68468847054646
:1057B000072169700AE004E031462046FFF71BFF2D
:1057C000DDE731462046FFF716FFD8E700BFBDF8FA
:1057D000000088B1F08878B1F088BDF800108842E8
:1057E00002DDBDF8000000E0F0880090BDF8002068
:1057F00029462046FFF718FF00BFC0E770B50446F2
:105800000D4694F8FC01022802D0032811D100E0D3
:1058100000BF0120E060D4F8040218B1E06840F055
:105820000200E060022204F10C012046FFF7FCFEBA
:1058300004E029462046FFF7DEFE00BF00BF70BD32
:1058400070B504460D462946D4F82002FDF7BCFA8F
:10585000002070BD2DE9F04104460E461746002E8B
:1058600048D104F11405D4F8F401022837D1D5E960
:10587000020188420AD9D5E90201401AA8602889A4
:1058800082B239462046FFF7AAFE28E0E968686838
:10589000B0FBF1F201FB120088B9E9686868884240
:1058A0000DD36868D4F8F811884208D20022114656
:1058B0002046FFF794FE0020C4F8F8010FE0D4F86A
:1058C0001402C06840B194F8FC01032804D1D4F854
:1058D0001402C168204688472046FFF798FE94F8D6
:1058E0000002012814D1204600F061F9002084F85C
:1058F00000020DE0D4F81402406948B194F8FC01AC
:10590000032805D1D4F81402314642692046904755
:105910000020BDE8F0812DE9F04105460E4617460E
:105920005EBB05F58274D5F8F401032833D1D4E9C0
:105930000201884210D9D4E90201401AA060D4E9DA
:105940000201884201D2A06800E0E06882B23946D4
:105950002846FFF738FE1EE0D5F81402006940B172
:1059600095F8FC01032804D1D5F8140201692846F2
:1059700088472846FFF769FE0DE0D5F814028069D4
:1059800048B195F8FC01032805D1D5F81402314639
:105990008269284690470020BDE8F081014600203A
:1059A000704710B50446012084F8FC012179D4F831
:1059B0001402426820469047002010BD10B50246F0
:1059C000D2F8203201F08000802809D101F07F0058
:1059D000C0EBC00403F1300000EB8400807810BD00
:1059E00001F07F00C0EBC00403F5EA7000EB840017
:1059F0008078F4E702460020704702460020704796
:105A00002DE9F04104460F4615461E462B46324608
:105A10003946D4F82002FDF70BFA0020BDE8F081EA
:105A20002DE9F04104460D4616461F463B463246D8
:105A30002946D4F82002FDF741FA0020BDE8F081A4
:105A400010B504464023002211462046FFF7D8FF38
:105A500040214FF4887001514023002280212046CC
:105A6000FFF7CEFF40212162012084F8FC01D4F829
:105A7000180228B12179D4F81402426820469047D0
:105A8000002010BD014691F8FD0181F8FC010020C5
:105A9000704710B5044694F8FC01032808D1D4F8E7
:105AA0001402C06920B1D4F81402C16920468847A5
:105AB000002010BD024611740020704770B50446E6
:105AC0000D462946D4F82002FDF781FD002070BD67
:105AD00070B504460D46294604F5027000F053F8EF
