:020000040800F2
:10000000701600209D010008A5010008A701000846
:10001000A9010008AB010008AD01000800000000C4
:10002000000000000000000000000000AF01000818
:10003000B101000800000000B30100085F330008B0
:10004000B7010008B7010008B7010008B7010008B0
:10005000B7010008B7010008B7010008B7010008A0
:10006000B7010008B7010008B7010008B701000890
:10007000B7010008B7010008B7010008B701000880
:1000800099020008B1020008B7010008B701000892
:10009000B7010008B7010008B7010008B701000860
:1000A000B7010008B7010008B7010008B701000850
:1000B000B7010008B7010008B7010008B701000840
:1000C000B7010008B7010008B7010008B701000830
:1000D000B7010008C13A0008D93A0008B701000882
:1000E000B7010008B7010008B1320008B7010008E5
:1000F000B7010008B7010008B7010008B701000800
:10010000B7010008B7010008B7010008B7010008EF
:10011000B7010008B7010008B7010008B7010008DF
:10012000B7010008B7010008C9020008B7010008BC
:10013000B7010008B7010008B7010008B7010008BF
:10014000B7010008B7010008B7010008993200089C
:10015000B7010008B7010008E1020008B701000874
:10016000B7010008B7010008B7010008B70100088F
:10017000B7010008B7010008B7010008000000003F
:10018000B7010008B7010008DFF80CD000F02AF82A
:1001900000480047ED4E00087016002006488047D2
:1001A00006480047FEE7FEE7FEE7FEE7FEE7FEE75C
:1001B000FEE7FEE7FEE7FEE7D53300088901000809
:1001C00040EA01039B0703D009E008C9121F08C0D9
:1001D000042AFAD203E011F8013B00F8013B521E59
:1001E000F9D27047064C074D06E0E06840F0010385
:1001F00094E8070098471034AC42F6D3FFF7C8FFE5
:10020000445100086451000870B58C1810F8015B67
:1002100015F0070301D110F8013B2A1106D110F89F
:10022000012B03E010F8016B01F8016B5B1EF9D1A3
:100230002B0705D40023521E0DD401F8013BFAE729
:1002400010F8013BCB1A921C03E013F8015B01F894
:10025000015B521EF9D5A142D8D3002070BD002009
:10026000704700207047000010B5074C0548002279
:100270000649206003F0F8FC0549206803F0EEFC15
:10028000002010BD9804002010000020BC080020B1
:10029000BC0600200020704710B5102001F0E6F9E0
:1002A000BDE81040014800F027B80000F803002026
:1002B00010B5112001F0DAF9BDE81040014800F056
:1002C0001BB800004804002010B53A2001F0CEF918
:1002D000BDE81040014800F00FB8000058030020AE
:1002E00010B5462001F0C2F9BDE81040014800F009
:1002F00003B80000A80300202DE9F05FFB49074682
:10030000FA4DFB4E00684A15DFF8E093DFF8E0A3F2
:10031000DFF8D8B39302F64C483D60364FF0007CCE
:1003200009F118090AF1180AABF1300B88422BD9F0
:10033000EE4954392EE048453BD100BF4FF0080844
:100340000AE0DFF8A88308F1300840453CD1904628
:1003500002E0984600E0E04611EA080F6FD001681D
:1003600049076CD5016821F004010160DF49386854
:10037000884265D9A04205D0A84203D0B04201D03E
:1003800048453AD1082257E0D949A831884203D9D3
:10039000D6495839096805E0D54948318842D549D8
:1003A000F8D94968A042C9D0A842C7D0B042C5D048
:1003B000C1E75045CBD05845C9D0DFF8348308F1A8
:1003C00078084045C3D0BCE7DFF8248308F1300843
:1003D0004045BED0DFF81483A8F118084045B8D0D6
:1003E000DFF80C8308F190084045B2D0DFF8FC82BA
:1003F00008F148084045AED1ABE750451CD0584500
:100400001AD0BB497831884216D0B8493031884279
:1004100012D0B749303188420BD0B44918398842DC
:1004200007D0B3499031884203D0B049483188425F
:1004300001D11A4600E06246AC484C382FE099E002
:10044000AB49A83188422CD9A04205D0A84203D09C
:10045000B04201D0484501D108221EE050451CD0D1
:1004600058451AD0A2497831884216D09F49303178
:10047000884212D09E49303188420BD09B491839AE
:10048000884207D09A499031884203D09749483131
:10049000884201D11A4600E0624694485038026012
:1004A0005AE09349483188422BD9A04205D0A8424E
:1004B00003D0B04201D0484501D108221EE050458A
:1004C0001CD058451AD08A497831884216D08749BD
:1004D0003031884212D08649303188420BD083496E
:1004E0001839884207D082499031884203D07F4929
:1004F0004831884201D11A4600E062467D48C26018
:100500002AE0A04205D0A84203D0B04201D048451D
:1005100001D108221EE050451CD058451AD074491C
:100520007831884216D071493031884212D07049F2
:10053000303188420BD06D491839884207D06C4958
:100540009031884203D069494831884201D11A4626
:1005500000E0624667488260F86C40F00100F86491
:10056000042087F83500002087F83400B96C09B101
:1005700038468847604A5D493868D3114FF4800C8B
:10058000884237D9594954393AE0484547D19046CD
:100590000CE0DFF8588108F1300840454AD100BF2F
:1005A0004FF0400802E0984600E0E04611EA080FEC
:1005B0006FD0416909066CD5416921F08001416124
:1005C0004A493868884265D9A0425FD0A8425DD0C8
:1005D000B0425BD0484559D0504509D0584507D066
:1005E00043497831884203D04049303188423AD17A
:1005F00040224BE03E49A831884203D93B49583953
:10060000096805E03A49483188423A49F8D94968C9
:10061000A042BCD0A842BAD0B042B8D0B5E750454D
:10062000BED05845BCD0DFF8C88008F178084045F6
:10063000B6D0AEE7DFF8B88008F130084045B2D058
:10064000DFF8A880A8F118084045ACD0DFF8A080FA
:1006500008F190084045A6D0DFF8908008F14808DE
:100660004045A2D19FE72249303188420BD01F4933
:100670001839884207D01E499031884203D01B495F
:100680004831884201D11A4600E0624617484C388A
:1006900036E0A1E01649A831884233D9A0422ED0D5
:1006A000A8422CD0B0422AD0484528D0504509D085
:1006B000584507D00E497831884203D00B49303174
:1006C000884201D140221AE00949303188420BD0DA
:1006D00006491839884207D005499031884203D02D
:1006E00002494831884209D11A4608E0586402405C
:1006F0001060024000600240010080006246F9483C
:1007000002605BE0F84988422CD9A04226D0A8427A
:1007100024D0B04222D0484520D0504509D0584579
:1007200007D0F1493031884203D0EE498031884208
:1007300001D1402212E0EC49183988420BD0E94936
:100740003831884207D0E8494831884203D0E5492A
:100750009831884201D11A4600E06246E248583892
:10076000C2602BE0A04226D0A84224D0B04222D0C2
:10077000484520D0504509D0584507D0DA49303196
:10078000884203D0D7498031884201D1402212E00B
:10079000D549183988420BD0D2493831884207D020
:1007A000D1494831884203D0CE499831884201D19D
:1007B0001A4600E06246CC4858388260F86C40F037
:1007C0000200F864042087F83500002087F8340020
:1007D000B96C09B138468847C249C44A38685031B3
:1007E00053114FF4807C4FF0807E884236D9BD494A
:1007F000091F39E0484545D190460AE0DFF8E48218
:1008000008F18008404548D1E04602E0984600E003
:10081000F04611EA080F6FD0016889076CD50168AE
:1008200021F002010160AF4938685031884264D933
:10083000A0425ED0A8425CD0B0425AD0484558D0C1
:10084000504509D0584507D0A7493031884203D0D8
:10085000A4498031884239D162464AE0A2496031D8
:10086000884203D99F490839096804E09E498842B3
:100870009F49F9D94968A042BED0A842BCD0B04235
:10088000BAD0B7E75045BFD05845BDD0DFF8588241
:1008900008F130084045B7D0B0E7DFF84C82A8F146
:1008A00018084045B2D0DFF83C8208F138084045CE
:1008B000ACD0DFF8348208F148084045A6D0DFF814
:1008C000248208F198084045A2D19FE7864918394B
:1008D00088420BD083493831884207D08249483159
:1008E000884203D07F499831884201D11A4600E0FE
:1008F00072467C48001D2EE097E07B4960318842BB
:100900002BD9A04226D0A84224D0B04222D04845BC
:1009100020D0504509D0584507D07349303188421E
:1009200003D070498031884201D1624612E06E499D
:10093000183988420BD06B493831884207D06A4950
:100940004831884203D067499831884201D11A461C
:1009500000E072466348026059E0634988422BD93F
:10096000A04226D0A84224D0B04222D0484520D070
:10097000504509D0584507D05B493031884203D0F3
:1009800058498031884201D1624612E056491839EF
:1009900088420BD053493831884207D052494831F8
:1009A000884203D04F499831884201D11A4600E06D
:1009B00072464F48C2602AE0A04226D0A84224D006
:1009C000B04222D0484520D0504509D0584507D0E4
:1009D00045493031884203D042498031884201D1B3
:1009E000624612E04049183988420BD03D493831FF
:1009F000884207D03C494831884203D03949983170
:100A0000884201D11A4600E0724639488260F86C8B
:100A100040F00400F864042087F83500002087F8CF
:100A20003400B96C09B138468847DFF8B8C04FF4D4
:100A3000806138680CF1500C8A020B04604534D98F
:100A4000DFF8A0C0ACF1040C39E0484552D100BF3A
:100A50004FF010080AE0DFF88C8008F1800840456C
:100A600051D1884602E0904600E098461CEA080F03
:100A70007ED0D0F800C05FEA0C7C79D5D0F800C0F9
:100A80005FEA4C384FF0310C73D5DFF8588008F12D
:100A90005008404575D9A04205D0A84203D0B042C5
:100AA00001D0484546D1102168E0DFF83CC00CF188
:100AB000600C604506D9DFF82CC0ACF1080CDCF8FE
:100AC00000C007E0DFF820C06045DFF824C0F6D999
:100AD000DCF804C0A042BBD0A842B9D0B042B7D025
:100AE000B3E7000008640240586002400400800040
:100AF000006002405045B4D05845B2D0DFF84C8475
:100B00004045AED0A7E7DFF84484A8F14808404547
:100B1000A9D0DFF83C844045A5D0DFF8308408F147
:100B2000180840459FD0DFF8288408F16008404548
:100B30009BD198E7504521D058451FD0DFF80C8451
:100B400040451BD0DFF8088408F14808404515D01F
:100B5000FE49483988420AD0FD49884207D0FB49FE
:100B60001831884203D0FA496031884205D102E049
:100B7000ADE0BBE005E0114600E01946F44834382A
:100B800031E0DFF8C88308F1300840452DD9A04294
:100B900005D0A84203D0B04201D0484501D1102170
:100BA0001FE050451DD058451BD0DFF8A0834045BD
:100BB00017D0DFF89C8308F14808404511D0E3497D
:100BC000483988420AD0E249884207D0DF491831C3
:100BD000884203D0DE496031884201D1114600E0ED
:100BE0001946DB483838016060E0DFF86083A8F11F
:100BF000300840452DD9A04205D0A84203D0B042CC
:100C000001D0484501D110211FE050451DD0584565
:100C10001BD0DFF83883404517D0DFF8348308F164
:100C20004808404511D0C949483988420AD0C849C6
:100C3000884207D0C5491831884203D0C449603181
:100C4000884201D1114600E01946C0488838C16089
:100C50002CE0A04205D0A84203D0B04201D04845C4
:100C600001D110211FE050451DD058451BD0DFF8A1
:100C7000DC82404517D0DFF8D88208F148084045AB
:100C800011D0B249483988420AD0B149884207D0C8
:100C9000AE491831884203D0AD496031884201D154
:100CA000114600E01946A948883881603868016813
:100CB000090302D487F835C005E00068000302D5B7
:100CC000412087F83500396C09B138468847DFF88C
:100CD00080C24FF4006138680CF1180C8A024FF0A2
:100CE000006E604570D99A4B3C3B00E1D0F8008023
:100CF0005FEAC85805D4D0F8008028F00808C0F88A
:100D00000080DFF84C82386808F1180840452CD97B
:100D1000A04205D0A84203D0B04201D0484501D13D
:100D200010211FE050451DD058451BD0DFF81C8214
:100D3000404517D0DFF8188208F14808404511D027
:100D40008249483988420AD08149884207D07F4980
:100D50001831884203D07E496031884201D1114662
:100D600000E019467A48343832E0DFF8E08108F1D3
:100D7000300840452ED9A04205D0A84203D0B04249
:100D800001D0484501D1102120E050451ED05845E2
:100D90001CD0DFF8B881404518D0DFF8B48108F1E5
:100DA0004808404512D06949483988420AD0684904
:100DB000884207D065491831884203D064496031C0
:100DC000884202D1114601E08BE01946604838386C
:100DD00001606FE7DFF87481A8F1300840452DD934
:100DE000A04205D0A84203D0B04201D0484501D16D
:100DF00010211FE050451DD058451BD0DFF84C8115
:100E0000404517D0DFF8488108F14808404511D027
:100E10004E49483988420AD04D49884207D04B494B
:100E20001831884203D04A496031884201D11146C5
:100E300000E0194645488838C1603BE7A04205D02C
:100E4000A84203D0B04201D0484501D110211FE093
:100E500050451DD058451BD0DFF8F080404517D0D5
:100E6000DFF8EC8008F14808404511D0374948398F
:100E700088420AD03649884207D03449183188421E
:100E800003D033496031884201D1114600E0194650
:100E90002E48883881600DE7484537D14FF020084B
:100EA0000AE0DFF8AC8008F14808404537D18846B1
:100EB00002E0904600E0F04613EA080F7AD003689B
:100EC000DB0677D503685B0375D5604564D9A0421E
:100ED00005D0A84203D0B04201D048453CD12021E2
:100EE00057E01A4B3033984203D9194B403B1B68EB
:100EF00005E0164B303B9842164BF8D95B68A04290
:100F0000CCD0A842CAD0B042C8D0C5E75045CED058
:100F10005845CCD0DFF834804045C8D0C1E7DFF871
:100F2000348008F140084045C3D0DFF824804045B4
:100F3000BFD0DFF8188008F118084045B9D0DFF8B5
:100F4000108008F160084045B5D1B2E788600240E2
:100F5000406402400060024050451AD0584518D005
:100F6000BE4B984215D0BE4B984212D0BB4948396F
:100F700088420BD0BA494839884207D0B74918315E
:100F8000884203D0B6491831884201D1114600E0A9
:100F90007146B3487C382EE0B04B303398422CD9A0
:100FA000A04205D0A84203D0B04201D0484503D1A9
:100FB00020211EE0FBE089E050451AD0584518D0AA
:100FC000A64B984215D0A64B984212D0A349483957
:100FD00088420BD0A2494839884207D09F4918312E
:100FE000884203D09E491831884201D1114600E061
:100FF00071469B488038016058E0984B303B9842DE
:101000002AD9A04205D0A84203D0B04201D0484519
:1010100001D120211CE050451AD0584518D08F4BE3
:10102000984215D08E4B984212D08C49483988424C
:101030000BD08B494839884207D0884918318842FB
:1010400003D087491831884201D1114600E071462A
:1010500082488838C16029E0A04205D0A84203D068
:10106000B04201D0484501D120211CE050451AD0A2
:10107000584518D0794B984215D0794B984212D0E8
:101080007649483988420BD075494839884207D09B
:1010900072491831884203D071491831884201D110
:1010A000114600E071466D488838816038680168F3
:1010B000090301D4796C03E00068000377D5F96B6C
:1010C000002974D03846BDE8F05F08470368DB05A7
:1010D00003D4036823F0100303603868604529D9FE
:1010E000A04205D0A84203D0B04201D0484501D16A
:1010F00020211CE050451AD0584518D0574B984233
:1011000015D0574B984212D05449483988420BD0D9
:1011100053494839884207D050491831884203D092
:101120004F491831884201D1114600E071464C48C0
:101130007C382CE0494B303398422AD9A04205D064
:10114000A84203D0B04201D0484501D120211CE083
:1011500050451AD0584518D0404B984215D0404BB6
:10116000984212D03D49483988420BD03C49483911
:10117000884207D039491831884203D0384918319C
:10118000884201D1114600E071463548803801603F
:1011900059E0324B303B98422BD9A04205D0A842AF
:1011A00003D0B04201D0484502D120211DE053E0D8
:1011B00050451AD0584518D0284B984215D0284B86
:1011C000984212D02549483988420BD024494839E1
:1011D000884207D021491831884203D0204918316C
:1011E000884201D1114600E071461C488838C16030
:1011F00029E0A04205D0A84203D0B04201D0484522
:1012000001D120211CE050451AD0584518D0134B6D
:10121000984215D0124B984212D010494839884252
:101220000BD00F494839884207D00C491831884201
:1012300003D00B491831884201D1114600E07146B4
:10124000064888388160F86CF864112087F835000A
:10125000002087F8340032E7BDE8F09F8860024044
:101260008864024070B5D0B10221446A80F835101C
:1012700003681A6816490A40D0E901152943D0E9E4
:101280000356354329434569294385692943C5697F
:101290002943056A29431143042C02D005E00120AB
:1012A00070BDD0E90B2422431143196003685969CA
:1012B000426A21F007011143042A01D1826A1143D5
:1012C00059610021C164012180F83510002070BDF2
:1012D0003F8014F031B500F0F1F8044600F0EEF86C
:1012E0000099001B8842F9D338BD00002DE9F04F6A
:1012F000DFF888B100224FF001084FF0030A4FF0E9
:101300000F090BF1040E00BF0B6808FA02F423402A
:10131000A3426FD14D68022D01D0122D0ED1D508F8
:1013200000EB850CDCF820505607F70E09FA07F69B
:10133000B5430E69BE402E43CCF8206006685500C8
:101340000F790AFA05FC07F0030726EA0C06AF40FE
:10135000374307604E68012E05D0022E03D0112EB0
:1013600001D0122E0ED18768CE6827EA0C07AE4056
:101370003E4386604668A6430C79C4F3001494404B
:1013800034434460C4688E6824EA0C04AE402643AB
:10139000C6604C68E4006BD5394C256845F480453F
:1013A0002560384C22F003052F19D7F80858940708
:1013B000240F09FA04F6B543334EB04201D100269A
:1013C0002EE0324EB04201D1012629E0304EB0422B
:1013D00001D1022624E02F4EB04201D103261FE0A6
:1013E0002D4EB04201D104261AE02C4EB04202D15B
:1013F000052615E03CE02A4EB04201D106260FE05A
:10140000284EB04201D107260AE0274EB04201D152
:10141000082605E0254EB04201D1092600E00A2643
:10142000A6402E43C7F80868DBF800405D464E68CA
:101430009C43F60300D51C432C60DEF80040754643
:101440004E689C43B60300D51C432C600B4D0835F9
:101450002C684E689C43F60200D51C432C60074D57
:101460000C352C684E689C43B60200D51C432C609A
:10147000521C102AFFF448AFBDE8F08F003C014039
:1014800044380240003001400000024000040240A5
:1014900000080240000C024000100240001402400C
:1014A00000180240001C02400020024000240240BC
:1014B0000AB101837047418370470000014800680A
:1014C000704700005C00002010B5040003D094F8C1
:1014D000350010B104E0012010BD204600F070F886
:1014E000022084F835002068016821F001010160C4
:1014F00000F024FE30492268B0FBF1F151602F4A20
:101500006368934206D94FF4967359434FF47A7344
:10151000B1FBF3F12368491C19626168914208D854
:101520004900B0FBF1F0C0F30B01042918D20420EC
:1015300016E0A36893B301EBC10202EB0112B0FB0A
:10154000F2F242F4804212052FD043B301EBC10204
:1015500002EB0111B0FBF1F040F4804040F4004098
:101560002168C861D4E90701084321680860D4E90B
:101570000310084321688860D4E905010843216805
:10158000C8602068016841F001010160002084F812
:101590003600012084F83500002010BD00E006E090
:1015A00001EB4102B0FBF2F2CDE70120D8E701EBFD
:1015B0004101B0FBF1F0D1E740420F00A0860100ED
:1015C00000B500680C4985B0884212D10B4801680B
:1015D00041F4800101604FF44060009012200190BE
:1015E0000020029003900420049069460448FFF70D
:1015F0007DFE05B000BD00000058004040380240AC
:101600000004024002480168491C01607047000064
:101610005C0000200B4810B5016841F400710160C6
:10162000016841F480610160016841F480710160EA
:10163000032000F051F8002000F006F800F015F843
:10164000002010BD003C024010B5044600F05CFDD7
:101650004FF47A71B0FBF1F000F079FF00222146DF
:10166000501E00F019F8002010BD704700F01F0256
:10167000012191404009800000F1E020C0F8801273
:10168000704700F01F02012191404009800000F1E5
:10169000E020C0F800117047F0B40E4B1B680C46F8
:1016A000C3F30223C3F10705042D00D90425191D36
:1016B000072901D2002300E0DB1E012606FA05F10E
:1016C000491E214099409E40761E16403143F0BC91
:1016D00001F0D2BD0CED00E0064900F007020868F9
:1016E0004FF6FF03184040EA0220034A1043086007
:1016F000704700000CED00E00000FA050068416250
:1017000000207047F0B500680023446A31B1856A53
:101710004FF4827604EB15444D1E0AE044EA024180
:1017200081620FE006EB8307C7595B1C04EB17448B
:10173000DBB2AB42F6DB4FF4807303EB810144EA8A
:10174000024242500020F0BDD0F8AC0302F0BBBC16
:10175000C1EBC10200EB8202D0F8AC03D26B02F005
:101760002DBCC1EBC10200EB8202D0F8AC03D2F871
:10177000E02102F073BCD0F8AC0302F0A6BC10B5B7
:1017800004460A460B0601F07F00C0EBC00104EBE3
:10179000810101D5303101E001F5EA710870D0090D
:1017A000487094F87803012809D0012084F8780360
:1017B000206802F077FF002084F8780310BD022033
:1017C00010BD70B50A460446090602F07F0005D533
:1017D000C0EBC00104EB8101303105E0C2EBC20176
:1017E00004EB810101F5EA7100258D700870D009C4
:1017F000487094F87803012809D0012084F8780310
:10180000206803F006F984F87853002070BD0220A8
:1018100070BD01F07F01C1EBC10100EB8100B0F8A8
:10182000EC0180B2704770B504460D460E0601F01B
:101830007F00C0EBC00104EB810101D5303101E034
:1018400001F5EA71ED0908704D708A60CB7000D027
:10185000C8800025022B00D10D7194F8780301286F
:1018600009D0012084F87803206802F06FFE284632
:1018700084F8785370BD022070BD000070B5044636
:101880000E4601F07F00C0EBC00104EB8101002592
:10189000C1F8E021C1E97A3581F8D55181F8D40148
:1018A000206901F5EA71012800D10A6194F87803F2
:1018B00001280DD0012084F878037006227C20686E
:1018C00008D003F007F900BF84F87853002070BDFA
:1018D000022070BD02F0DEFFF6E770B50D4604464B
:1018E000090605F07F0005D5C0EBC00104EB8101BE
:1018F000303105E0C5EBC50104EB810101F5EA716A
:1019000001228A700870E809487094F87803012869
:1019100007D084F87823206803F0ADF8680602D079
:1019200007E0022070BD217C04F55F72206803F09F
:1019300051F8002084F8780370BD70B504460E4657
:1019400001F07F00C0EBC00104EB81010025CA63F8
:10195000C1E91135012381F8313001F8300F2069D8
:10196000012800D10A6194F8780301280BD084F88B
:1019700078337006227C206807D003F0ABF884F837
:101980007853002070BD022070BD02F083FFF6E79F
:101990002DE9F84F044600680026054603F0EEF9ED
:1019A000002873D1206803F012FA00286ED0206856
:1019B00003F00DFA80074FF0020A02D52168C1F842
:1019C00014A0206803F003FA010304F55F704FF0E0
:1019D000080900904DD5206803F0DBF9074646E082
:1019E000F80742D0F1B2206803F0E9F98046C00759
:1019F00029D005EB46110120C1F8080B2069012808
:101A000011D1C6EBC60004EB8000D1F8101BD0F852
:101A1000DC21C1F31201511AC0F8EC11D0F8E01129
:101A20001144C0F8E011F1B22046FFF79AFE206998
:101A3000012808D13EB9D4F8E80120B92068012175
:101A4000009A02F0C7FF5FEA087006D5204600F052
:101A50005FFA05EB4611C1F8089B5FEAC86004D540
:101A600005EB46111020C1F8080B7F08761C002FEB
:101A7000B6D1206803F0ABF940034FF0400B5DD5C1
:101A8000206803F07FF90746002655E070E1F8076B
:101A900050D0F1B2206803F083F98046C00725D00A
:101AA0000120D5F8342800FA06F18A43C5F8342815
:101AB00005EB4611C1F808092069012807D1C6EBDA
:101AC000C60004EB8000D0E90E211144C163F1B2DD
:101AD0002046FFF73DFE2069012807D136B9606C2A
:101AE00020B920680121009A02F074FF5FEA0870B3
:101AF00003D505EB4611C1F808995FEAC86004D523
:101B000005EB46111020C1F808095FEA486003D5CB
:101B100005EB4611C1F808B95FEA887003D505EBFB
:101B20004611C1F808A95FEA086003D5314620468E
:101B300001F0CAFB7F08761C002FA8D1206803F0B3
:101B400046F900280CDAD5F8040820F00100C5F8A1
:101B50000408204600F0C2F920684FF000414161BE
:101B6000206803F034F900050AD5D5F80808C00745
:101B700002D0204600F0E8F920684FF4006141618E
:101B8000206803F024F9C0044AD5D5F8040820F0F1
:101B90000100C5F804080021206803F0BFF8002008
:101BA000FF2106E005EB4012C2F80819C2F8081B35
:101BB000401C62688242F5D84FF0FF30C5F8180823
:101BC000D5F81C0840F00110C5F81C08A06A60B1E7
:101BD000D5F8840840F00B00C5F88408D5F844080F
:101BE00040F00B00C5F844080BE0D5F8140840F0AD
:101BF0000B00C5F81408D5F8100840F00B00C5F824
:101C00001008D5F8000820F4FE60C5F80008217C13
:101C10002068009A02F0DEFE21684FF4805048618F
:101C2000206803F0D4F880041BD5206802F0CEFCB5
:101C30002068C16821F47051C160206803F080F809
:101C400050B30320C4F814B0E0602068C16841F4C8
:101C5000A051C160204600F031F921684FF40050D6
:101C60004861206803F0B3F8C00640D52068816958
:101C700021F010018161D5F8208008F00F00C0EB41
:101C8000C00004EB8007C8F3434007F5EA77022859
:101C90000CD006281CD025E00020E0604FF4007036
:101CA00060612068C16841F41051D2E747F6F071D5
:101CB00018EA010F16D0C8F30A1290462846F968B0
:101CC00003F089F8F8684044F860B869404408E0D7
:101CD00008222846009903F07EF8B969C8F30A1073
:101CE0000844B8612068816941F010018161206871
:101CF00003F06DF8000705D5204600F0F3F82168E1
:101D0000C1F81490206803F062F8C00207D5F1B260
:101D1000204600F02FF821684FF4801048612068B9
:101D200003F055F8800207D5F1B2204600F026F8FE
:101D300021684FF400104861206803F048F8400023
:101D400006D52046FFF700FD21684FF0804048612E
:101D5000206803F03CF840070AD52068456868070A
:101D600002D52046FFF707FD2068416829434160FE
:101D7000BDE8F88FD0F8AC0302F0F4B9D0F8AC03AA
:101D800002F0F2B9F0B589B004004FF0000556D06A
:101D9000032084F87903204600F054F8206802F00C
:101DA00073FD04F1100120220F466846FEF708FA81
:101DB00094E80F0002F024FC0021206803F01BF8D7
:101DC00001260020C5EBC50104EB810181F83160DB
:101DD00001F8305FCD80C8708860C8606D1C4861B4
:101DE0000F2DEFD300214FF4827300BFC1EBC1026E
:101DF00004EB820203EB810582F8D50182F8D4114D
:101E0000D18682F8D701C2F8DC01C2F8E001C2F83D
:101E1000E80122685051491C0F29E7D32022394696
:101E20006846FEF7CDF994E80F0002F08BFC84F8C9
:101E30007963206802F079FC002009B0F0BD012030
:101E4000FBE7000000B5006885B0B0F1A04F2ED1CF
:101E50001848016841F0800101601648103001689F
:101E600041F4804101604FF4C05000900220019085
:101E70000020029003900A20049069460E48FFF764
:101E800035FA0720FFF728FC002211464320FFF710
:101E900003FC4320FFF7F5FB0720FFF71DFC0022A2
:101EA00011462A20FFF7F8FB2A20FFF7EAFB05B0CE
:101EB00000BD0000343802400000024010B5044666
:101EC000C068012100B90021D4F8AC0302F090F9F8
:101ED000D4F8AC03BDE8104002F059B9D0F8AC0317
:101EE00002F074B9D0F8AC0302F076B910B504462C
:101EF00090F87803012809D0012084F8780320683D
:101F000002F08FFF002084F8780310BD022010BD7E
:101F1000D0F8AC2300F55F71104602F073B910B52C
:101F2000044690F8780301280CD0012084F8780347
:101F3000206802F0EEFB206802F0DAFE002084F850
:101F4000780310BD022010BDD0F8AC0302F095B9A3
:101F50002DE9F047DFF8A8A105460E46DAF80000A3
:101F6000684C00F00F016748083406F0FF0941F2A1
:101F70008838B14254D28AF80090DAF8001001F0A3
:101F80000F01B1426FD12978890705D52168AA6868
:101F900021F0F001114321602978C90728D0696830
:101FA000012914D00068022914D0800700285ADAC9
:101FB000206820F0030008432060FFF77FFA064600
:101FC000686801280ED00228474618D023E0006830
:101FD0008003EBE78001E9E7FFF770FA801BB84266
:101FE00001D964E047462068C0F381000128F3D19D
:101FF0006EE000BFFFF762FA801BB84257D8206836
:10200000C0F381000228F5D162E000BFFFF756FA65
:10201000801BB8424BD8206810F00C0FF6D157E067
:102020002978890705D52168AA6821F0F0011143B4
:1020300021602978C90741D06968012914D0006856
:10204000022914D08007002840DA206820F003001D
:1020500008432060FFF732FA0746686801280ED06F
:10206000022818D026E031E000688003EBE7800109
:10207000E9E700BFFFF722FAC11B414517D82068E6
:10208000C0F381000128F5D118E000BFFFF716FA70
:10209000C11B41450BD82068C0F381000228F5D14F
:1020A0000CE000BFFFF70AFAC11B414502D903202B
:1020B000BDE8F087206810F00C0FF3D18AF800908B
:1020C000DAF8000000F00F00B04201D00120EFE785
:1020D0002878400705D52068E96820F4E0500843D7
:1020E00020602878000706D52068296920F4604020
:1020F00040EAC10020600020FFF7A6FA0020D7E7E1
:10210000003C02400038024000B500F043F80849A6
:102110000968F02292FAA2F201F0F001B2FA82F21A
:10212000D140044A515CC8400349086000BD00002A
:1021300008380240345100084800002000B5FFF77D
:10214000E3FF074909684FF4E05292FAA2F201F462
:10215000E051B2FA82F2D140024A515CC84000BD5F
:10216000083802403451000800B5FFF7CDFF074999
:1021700009684FF4604292FAA2F201F46041B2FAA7
:1021800082F2D140024A515CC84000BD083802408A
:102190003451000830B51D48006810F00C011C488F
:1021A0001AD04410042916D0082915D11749091F3F
:1021B0000A6802F03F030A6802F480054FF48002C7
:1021C00092FAA2F2B2FA82F2D54047F6C07204D077
:1021D000B4FBF3F003E0204630BDB0FBF3F00B6836
:1021E0000968134092FAA2F2B2FA82F2D34058433D
:1021F0004FF4403292FAA2F201F44031B2FA82F284
:10220000D140491C4900B0FBF1F030BD0838024014
:102210000024F4002DE9F84F04460078DFF818A3F5
:10222000C64DC0074FF000064DD0DAF800105046FA
:10223000C1F38101012908D00068C0F381000228A0
:102240000AD1281D0068400206D5286880033AD5C7
:102250006068012873D136E0DFF8E09209F10209E5
:1022600089F80060FFF72AF9804641F2883705E0D7
:10227000FFF724F9A0EB0800B8427DD82868800356
:10228000F6D4207989F800006068012803D0FFF7B0
:1022900015F9804614E0FFF711F9804606E000BF0B
:1022A000FFF70CF9A0EB0800B842E6D828688003D5
:1022B000F6D508E0FFF702F9A0EB0800B842DCD839
:1022C00028688003F6D420789D4F80074FF0010BDB
:1022D00045D5DAF80010504611F00C0F4FF0F80910
:1022E00009D00068C0F3810002280BD19248001F7A
:1022F0000068400206D42868800714D5E0680128E9
:10230000A8D110E0E068D8B1C7F800B0FFF7D6F860
:10231000804605E0FFF7D2F8A0EB08006428ACD8AF
:1023200028688007F6D5286899FAA9F22169B2FAD7
:1023300082F220F0F8009140084328600FE0F8E0B6
:102340003E60FFF7BBF8804606E000BFFFF7B6F837
:10235000A0EB080064280FD828688007F6D42078FE
:10236000000729D5DFF8D0917648616909F16C0939
:1023700099B1C0F800B000E087E0FFF79FF8804611
:1023800006E000BFFFF79AF8A0EB080064287CD8AD
:10239000D9F800008007F5D50EE00660FFF78EF84B
:1023A000804605E0FFF78AF8A0EB080064286CD8A7
:1023B000D9F800008007F5D42078400756D55E484C
:1023C0003830016841F080510160DFF87C91D9F824
:1023D000001041F48071C9F80010FFF76FF88046D3
:1023E00006E000BFFFF76AF8A0EB080064284CD8AD
:1023F000D9F80000C005F5D5DFF83C8108F1680880
:1024000088F80060FFF75AF841F28839009005E03B
:10241000FFF754F80099411A494536D8D8F800001A
:102420008007F5D4207A88F80000A068012803D03E
:10243000FFF744F8009015E0FFF740F8009005E042
:10244000FFF73CF80099411A49456AD8D8F80000CE
:102450008007F5D50AE000BFFFF730F80099411A70
:1024600049455ED8D8F800008007F5D4A069E0B3EC
:10247000DAF80010C1F3810102295AD002283E6621
:1024800004D0FFF71BF804464EE04AE0FFF716F8C9
:10249000064604E0FFF712F8801B642841D828683C
:1024A0008001F7D4D4E90710084347F6C07292FAC6
:1024B000A2F2616AB2FA82F29140A26A4FF0FF334F
:1024C00003EB52024FF4403393FAA3F3B3FA83F3CE
:1024D0009A40114308434FF0706292FAA2F2E16A07
:1024E000B2FA82F29140084300E020E040F000514F
:1024F0001148001F0160C7F860B0FEF7DFFF044617
:1025000005E000BFFEF7DAFF001B642809D8286841
:102510008001F7D50BE000BFFEF7D0FF001B642859
:1025200002D90320BDE8F88F28688001F4D4002088
:10253000F8E70120F6E700000838024000380240C2
:1025400000004742800E474200700040704710B5BF
:10255000401EB0F1807F01D3012010BD4FF0E02478
:1025600060610F21601700F087FE0020A061072046
:102570002061002010BD10B5FFF7E8FF10BD30B599
:1025800090F83820012A19D0012200F8382F0223B0
:102590004370D1E900342343D1E902452C4323435E
:1025A0000C6923434C69896923430B4350F8381C59
:1025B0004B64427000210170084630BD022030BDDE
:1025C00030B590F83820012A20D0012280F8382038
:1025D000022380F8393003685C6824F070045C6082
:1025E00003685C680D682C435C6003689C6824F099
:1025F00080049C6003689C6849680C439C6080F878
:102600003920002180F83810084630BD022030BD46
:1026100010B5040003D094F8390010B104E0012093
:1026200010BD204600F00CF8022084F83900211D6E
:10263000206800F0F9FE012084F83900002010BD68
:1026400010B5154C036800210222144886B0A3423D
:102650000BD1134B1C6844F480241C604315009379
:10266000CDE90121039103210FE00E4CA34210D1CB
:102670000B4B1B1F1C6844F040041C604FF480434C
:102680000093CDE901210391092104916946FEF7E8
:102690002DFE06B010BD00000048014000040240BD
:1026A000443802400018004070B5044690F83800E5
:1026B000012817D0012584F83850022084F8390009
:1026C0002068826822F0770222F47F4282600868E4
:1026D000502837D00DDC202859D005DC88B31028CD
:1026E00041D151E0022070BD302853D040283AD16A
:1026F0003FE060282ED070280BD0B0F5805F03D06B
:10270000B0F5005F2FD110E02068816821F007014B
:1027100015E0CB68D1E90121206800F0E5FE2168D1
:10272000886840F0770088601DE0CB68D1E901211E
:10273000206800F0D9FE2068816841F48041816002
:1027400011E01EE0CA684968206800F095FF50213A
:10275000206806E0CA684968206800F0DFFF602151
:10276000206800F0CBFE84F83950002084F838004F
:1027700070BDCA684968206800F07EFF402120686B
:10278000EFE700212068ECE710212068E9E720212D
:102790002068E6E730212068E3E72DE9F0410D46A7
:1027A000040003D094F8390018B105E00120BDE819
:1027B000F081204600F03AF8022084F839002068C1
:1027C000816821F007018160211D206800F02CFE46
:1027D000226890689169166A2B68AF69034340F2DA
:1027E0000330814341EA0721A868EF6908434FF6A7
:1027F000FC418843E96840EA0720014328692F6AC1
:10280000000140EA0730084369686D6926F0AA06AE
:1028100046EA0515294393602268906120680162A9
:10282000012084F839000020C1E7000030B50468B9
:102830000021124B0222124885B0B4F1804F11D012
:10284000104DAC420CD11C6844F002041C60C02343
:102850000093CDE90121CDE903126946FEF746FD5B
:1028600005B030BD1C6844F001041C6022230093B5
:10287000CDE90121039101210491EEE740380240A6
:1028800000000240000400402DE9F041044690F8A9
:1028900038000D46012837D0012684F83860022020
:1028A00084F839007AB3042A40D02068082A4FD02F
:1028B000D5E90032E968076A27F480570762D0F843
:1028C0001CC0076A2CF4407C4CEA022222F47042BD
:1028D00042EA013127F4204242EA0332C161026236
:1028E0002068C16921F44061C1612068C169AA689A
:1028F00041EA0221C0F81C1084F83960002084F8F5
:102900003800BDE8F08101E00220FAE7D5E90012C5
:10291000EB68206800F0C2FE2068816921F00C019C
:10292000816120688169AA6811430FE0D5E900122E
:10293000EB68206800F004FF2068816921F44061A1
:10294000816120688169AA6841EA02218161D3E737
:10295000D5E9003CEA68016A21F480710162C1692D
:10296000076A21F0030141EA0C0121F0F00141EA7C
:10297000021127F4206242EA0322C1610262206848
:10298000C16921F00C01C1612068C169AA681143C5
:10299000B0E710B5040003D094F8390010B104E09A
:1029A000012010BD204600F00CF8022084F8390008
:1029B000211D206800F038FD012084F83900002036
:1029C00010BD704770B50D46040003D094F839006F
:1029D00010B104E0012070BD204600F015F802207F
:1029E00084F83900211D206800F01EFD2068016870
:1029F00021F008010160206801682943016001207D
:102A000084F83900002070BD704770B5044690F816
:102A100038000D4601280DD0012684F838600220C8
:102A200084F8390042B1042A18D0082A2AD00C2A86
:102A30004DD139E0022070BD206800F067FD2068AC
:102A4000816941F0080181612068816921F00401F8
:102A50008161206881692A69114311E0206800F0D2
:102A600081FD2068816941F400618161206881698C
:102A700021F480618161206881692A6941EA02212B
:102A8000816124E0206800F09FFD2068C16941F069
:102A90000801C1612068C16921F00401C161206899
:102AA000C1692A69114311E0206800F0BDFD20686A
:102AB000C16941F40061C1612068C16921F480618C
:102AC000C1612068C1692A6941EA0221C16184F8B3
:102AD0003960002084F8380070BD10B5040003D0C0
:102AE00094F8390010B104E0012010BD204600F038
:102AF0000DF8022084F83900211D206800F094FCB4
:102B0000012084F83900002010BD000000B50068E5
:102B10000C4985B0884212D10B48016841F001018F
:102B200001604FF47060009002200190002002903C
:102B300003900120049069460448FEF7D7FB05B0D6
:102B400000BD000000000140443802400010024077
:102B500070B5044690F83800012815D0012584F896
:102B60003850022084F839002268906820F0700301
:102B70004868184320F007030868184390604868C5
:102B800010F00F0F02D02DE0022070BD00110828B8
:102B900028D2DFE800F0272727270B1C22040B6927
:102BA000D1E90221206800F09FFC1BE02068026A46
:102BB000036A23F00103036220688369096923F033
:102BC000F00343EA01118161206802620AE00A69A8
:102BD0008968206800F050FD04E00A69896820686F
:102BE00000F09CFD84F83950002084F8380070BD56
:102BF000704710B5016804460868CA6810F0010FF4
:102C000002F4807208D03AB10868486894F83A0033
:102C100040F0010084F83A0008684A69C0F34000B7
:102C200002F0010240B13AB10868486894F83A00ED
:102C300040F0040084F83A0008684A69C0F3800054
:102C400002F0010240B13AB10868486894F83A00CD
:102C500040F0020084F83A0008684A69C0F3C000F6
:102C600002F0010240B13AB10868486894F83A00AD
:102C700040F0080084F83A000868C968C0F34010C2
:102C800001F0200118B111B1204600F06FFD21685C
:102C90000868C968C0F3C01001F0800118B111B113
:102CA000204600F073FE94F83A00002805D0012079
:102CB00084F839002046FFF79BFF10BD10B50400D3
:102CC00003D094F8390010B104E0012010BD204673
:102CD00000F022F8022084F839002068C16821F44D
:102CE0000051C160204600F095FD2068016921F483
:102CF000904101612068416921F02A014161206809
:102D0000C16841F40051C160002084F83A000120FC
:102D100084F83900002010BD2DE9F0470546474BE7
:102D200002210268002407208E0686B04FF48069D5
:102D30004FF0400A9A423BD1414A136843F01003D6
:102D40001360C0220092CDE90114CDE90340694629
:102D50003C48FEF7CBFA3D4F3B483860C7E9016479
:102D6000C7E903497C61BC61FC613C6238467C6216
:102D7000FEF778FA6F633448BD635037783087E8E0
:102D800041044015C7E903047C61BC61FC613C62FD
:102D900038467C62FEF766FA2F630720BD63FEF7B4
:102DA0009BFC002211462520FEF776FC252040E002
:102DB000274B9A423FD1224A121F136843F4003333
:102DC00013600C220092CDE90114CDE9034069465D
:102DD0002048FEF78BFA1D4F1F48A037B0463860D9
:102DE000C7E90164C7E903497C61BC61FC613C62DD
:102DF0004E4638467C62FEF735FA6F63BD63503746
:102E00001548C7E903467C61BC61FC613C6218302F
:102E10007C6287E801053846FEF724FA2F63072015
:102E2000BD63FEF759FC002211462620FEF734FC54
:102E30002620FEF726FC06B0BDE8F0870010014012
:102E4000443802400004024040640240580300201D
:102E50000044004000000240886002407047704714
:102E60001B4810B5016841F480010160016841F41C
:102E7000001101600720FEF72FFC002211463A20C6
:102E8000FEF70AFC3A20FEF7FCFB0720FEF724FCC5
:102E9000002211461120FEF7FFFB1120FEF7F1FB87
:102EA0000720FEF719FC002211464620FEF7F4FB2E
:102EB0004620FEF7E6FB0720FEF70EFC0022114637
:102EC0001020FEF7E9FBBDE810401020FEF7D9BB4B
:102ED000303802402DE9F047454886B0016841F09E
:102EE00080010160016841F001010160016841F069
:102EF00004010160016841F002010160016841F0D4
:102F000010010160016841F00801016000241127EF
:102F1000CDE90074DFF8DCA0694650460294FEF764
:102F2000E5F91020CDE90004334E6946304602949D
:102F3000FEF7DCF94FF4487000900125CDE901540B
:102F4000694630460394FEF7D1F904200090CDE99C
:102F50000154DFF8A890694648460394FEF7C6F985
:102F60004FF4E1400090CDE90154254E69463046CA
:102F70000394FEF7BBF9E803CDE900046946304647
:102F80000294FEF7B3F94FF44050CDE900046946CE
:102F900048460294FEF7AAF94FF6C0700326CDE921
:102FA0000005DFF86080CDE9024669464046FEF73D
:102FB0009DF94FF4E0600090CDE901546946504618
:102FC0000394FEF793F93F20CDE90007CDE90246CF
:102FD00069464046FEF78AF92020CDE90005CDE993
:102FE000024669464846FEF781F906B0BDE8F0871B
:102FF0003038024000000240000802400004024055
:1030000000100240000C0240094808494FF4804279
:1030100001600849416000218160C0E903124161FB
:103020008161C1610162FEF74FBA000000580040A3
:103030007C010020A086010010B5104888B00E4920
:103040000024C0E900148460C4600461FFF7E0FA62
:103050000A48FFF742FD08210848FFF7B3FC60204B
:10306000CDE9000402940022694604480494FFF765
:10307000CCFC08B010BD00000048014068020020F0
:1030800010B51A488EB018490024C0E900148460B5
:10309000C4600461FFF7BCFA4FF48050099009A99D
:1030A0001248FFF701FB1148FFF773FC0120CDE93F
:1030B00000400294002269460C480394FFF7E4FBA9
:1030C00002200190042269460848FFF7DDFB042036
:1030D00004905020CDE9050404A904480894FFF7A2
:1030E00037FD0EB010BD000000180040A402002003
:1030F00010B51A4890B018490024C0E90014846043
:10310000C46004614461FFF7E8FC6020CDE900047D
:103110000294039404940594002269460F4806948F
:10312000FFF773FC042269460C48FFF76EFC079416
:10313000089409944FF400500A94CDE90B4007A974
:1031400006480D94FFF71BFA0E940EA903480F943E
:10315000FFF736FA10B010BD00000140B4010020A6
:1031600010B510488CB04FF080410024C0E9001425
:103170008460C46004610120CDE90004CDE902044B
:103180000494CDE905400794694606480894FFF782
:1031900004FB099409A903480A94FFF711FA0CB03B
:1031A00010BD0000F001002010B510488CB00E4991
:1031B0000024C0E900148460C46004610120CDE9EA
:1031C0000004CDE902040494CDE905400794694662
:1031D00006480894FFF7E1FA099409A903480A94FC
:1031E000FFF7EEF90CB010BD000400402C020020E7
:1031F0000848074901604FF4E131416000218160D6
:103200000C22C160C0E904128161C161FFF756BDA3
:1032100000100140E00200200848074901604FF417
:10322000E1314160002181600C22C160C0E90412DB
:103230008161C161FFF742BD004400401C030020D2
:1032400010B500220849094800F095FE08490748D2
:1032500001F037F80749054800F0F8FCBDE81040D8
:10326000024801F07BB80000140000209804002000
:1032700038010020000000200907090E002806DAA6
:1032800000F00F0000F1E02080F8141D704700F1FD
:10329000E02080F80014704710B54320FEF7E6F9EF
:1032A000BDE810400148FEF773BB0000BC0A0020D7
:1032B00010B52A20FEF7DAF9BDE810400148FEF704
:1032C00067BB0000BC0A00202DE9F84F0F46C1EB98
:1032D000C70100EB810582460668D5E91101441A51
:1032E000A86B3035A04200D20446E01CC11700EBA9
:1032F00091704FEAA00806EB471919E0441AA86834
:10330000A04200D20446E01CC11700EB91704FEAC6
:10331000A0089AF810000090A3B2FAB23046E9680B
:1033200001F090FDE8682044E860A8692044A861A5
:10333000D9F8180981B2414505D9D5E9050181427D
:1033400001D20028DAD1002C06DC0120D6F834188E
:10335000B8408143C6F834180020BDE8F88F10B596
:10336000FEF750F9BDE81040FFF705B9174810B552
:10337000016892B041F0805101601548016841F444
:103380004041016001200090052002240190600569
:10339000CDE90640082008904FF4A870CDE9090453
:1033A00007200B906846FEF735FF0D20CDE90C0491
:1033B00000200E904FF4A0500F90E00210900521D5
:1033C0000CA8FEF7C5FD12B010BD00004038024049
:1033D000007000401048016841F4700101600F481E
:1033E000016841F0010101600C4A002108321160BE
:1033F00002680B4B1A400260031D0A4A1A600268F9
:1034000022F48022026005480C300160024958060F
:10341000803908607047000088ED00E00038024005
:10342000FFFFF6FE10300024F0B50268234B244D58
:10343000244E254F254C4FF0804C984209D06045D2
:1034400007D0A84205D0B04203D0B84201D0A04274
:1034500004D122F0700E4A6842EA0E0298421BD054
:10346000604519D0A84217D0B04215D0B84213D049
:10347000A04211D0164DA8420ED0164DA8420BD036
:10348000154DA84208D0154DA84205D0144DA842AC
:1034900002D0144DA84203D122F44075CA682A43D1
:1034A00002608A68C2620A688262984201D0A042C1
:1034B00001D10969016301214161F0BD00000140B2
:1034C0000004004000080040000C004000040140DF
:1034D0000040014000440140004801400018004005
:1034E000001C00400020004010B5846842EA03221E
:1034F00024F47F440A432243826010BD826822F094
:1035000070020A4342F007018160704730B5026AD9
:1035100022F001020262026A436884690D6824F0A5
:103520007304254322F002048A6822430B4CA04214
:1035300002D00B4CA0420BD122F00804CA6823F43D
:10354000407322434C6922F004021C438B692343DD
:103550004360856149684163026230BD00000140FB
:103560000004014030B5026A22F010020262026AD1
:10357000436884690D6824F4E64444EA05248D68B0
:1035800022F0200242EA05120D4DA84202D00D4D54
:10359000A8420ED1CD6822F0800242EA05124D69A0
:1035A00023F4406343EA85038D6922F0400243EA35
:1035B00085034360846149688163026230BD000015
:1035C000000001400004014030B5026A22F480721C
:1035D0000262036A4268C46923F4007324F073052D
:1035E0000C682C438D6843EA05230D4DA84202D098
:1035F0000C4DA8420ED1CD6823F4006343EA0523A5
:103600004D6922F4405242EA05128D6923F4806329
:1036100042EA05124260C4614968C163036230BD79
:10362000000001400004014030B5026A22F48052DB
:103630000262046A4268C3690D6823F4E64343EA00
:1036400005238D6824F4005444EA0534084DA8424B
:1036500002D0084DA84204D14D6922F4804242EACA
:1036600085124260C36149680164046230BD000094
:10367000000001400004014010B5036A046A24F010
:1036800001040462846924F0F00444EA021423F083
:103690000A020A438461026210BD000070B5046A28
:1036A00024F0010404628469056A154EB04214D006
:1036B000B0F1804F11D0134EB0420ED0124EB04236
:1036C0000BD0124EB04208D0114EB04205D0114E70
:1036D000B04202D0104EB04203D124F00304144390
:1036E00003E024F0030242F0010424F0F00242EA75
:1036F000031325F00A020A438361026270BD0000D1
:10370000000001400004004000080040000C0040A0
:1037100000040140004001400018004010B5036A59
:1037200023F0100303628369046A23F4704343EABD
:10373000023224F0A00343EA01118261016210BD4C
:1037400030B5046A24F0100404628569046A25F423
:10375000407545EA022222F4704242EA033224F024
:10376000A00343EA01118261016230BD10B590F8F7
:103770003910222903D0322901D0022010BD8168DE
:10378000B1F5805F11D00169002901681FD0496837
:1037900001F07F03816A4A1C82620B70C18D491E51
:1037A0000904090CC18518D030E00269816A002A39
:1037B0000268526805D0D2B20A80816A491C8162CF
:1037C000ECE7C2F308020A80816A891CF7E74A68BD
:1037D000816A4B1C83620A70E0E70168CA6822F0C4
:1037E0002002CA6090F83910322911D00168CA68E5
:1037F00022F48072CA6001684A6922F001024A61BB
:103800005FF0010180F83910FFF728FB002010BDA0
:103810001221F7E72DE9F04101680446086920F418
:103820004052E068104308612268D06849F20C6198
:1038300088432369A168E569194363692B431943E8
:103840000143D1602168486920F44072A0691043A7
:103850004861E26964263225B2F5004F49494A4879
:1038600022681DD0824201D08A426AD1FEF77CFCD8
:1038700000EBC00101EB00106168B0468900B0FBAD
:10388000F1F1B1FBF8F6FEF76FFC00EBC00101EBC4
:10389000001061688900B0FBF1F7FEF765FC69E094
:1038A000824201D08A4219D1FEF75EFC00EBC001D2
:1038B00001EB00106168B0464900B0FBF1F1B1FBCB
:1038C000F8F6FEF751FC00EBC00101EB0010616857
:1038D0004900B0FBF1F7FEF747FC18E0FEF72EFCBD
:1038E00000EBC00101EB00106168B0464900B0FB7D
:1038F000F1F1B1FBF8F6FEF721FC00EBC00101EBA2
:10390000001061684900B0FBF1F7FEF717FC00EB0F
:10391000C00101EB001061685FEA4101B0FBF1F109
:10392000B1FBF8F06FF01801484307EB800005EB9E
:103930000011B1FBF8F0216866F31F108860BDE844
:10394000F081FEF7FBFB00EBC00101EB00106168AA
:10395000B0468900B0FBF1F1B1FBF8F6FEF7EEFBE3
:1039600000EBC00101EB001061688900B0FBF1F7CA
:10397000FEF7E4FB00EBC00101EB00106168890079
:10398000CCE70000001401400010014010B50446CF
:1039900090F83900122803D0322801D0022010BD3F
:1039A000A068B0F5805F206A0BD0411C21622168BD
:1039B00000784860E08C401E0004000CE0840ED0CB
:1039C00033E000882168C0F30800486020690028BF
:1039D000206A02D0401C2062ECE7801CFBE72068D4
:1039E000C16821F08001C16094F83900322817D0F5
:1039F0002068C16821F48071C1602068416921F0AC
:103A0000010141615FF0010084F8390045F2F05393
:103A100000224021204600F00AF818B1032010BD12
:103A20002220F1E72046FFF71AFA002010BD2DE909
:103A3000F0471D4690460E460446FDF73FFD0746FB
:103A40005FEA08004FF000094FF0010808D030E0AD
:103A5000681C05D095B1FDF731FDC01BA8420DD8FB
:103A60002068006836EA0000F2D127E0681C20D008
:103A700025B1FDF723FDC01BA8421AD92068C168F3
:103A800021F08001C1602068C16821F02001C1607F
:103A90002068C16821F48071C1602068416921F00B
:103AA0000101416184F8398084F838900320BDE831
:103AB000F0872068006836EA0000D7D00020F6E7DB
:103AC00010B52520FDF7D2FDBDE810400148FFF7F5
:103AD00090B80000E002002010B52620FDF7C6FDDA
:103AE000BDE810400148FFF784B800001C03002027
:103AF000D0F8180220B10021C0F81412084670470F
:103B00000220704770B50546D0F8184200F0E8FA78
:103B1000C4F80C02D5F8180248B1D5F81C12D4F834
:103B20000402CA6804F503719047002070BD0220AA
:103B300070BD70B504460025812100F038FA0121DE
:103B4000204600F034FA8221204600F030FAD4F802
:103B5000180250B1D4F81C0204F50674406880477E
:103B6000206801F093F900202060284670BD10B550
:103B7000D0E9864159B194F80002FF2807D08B683C
:103B800094F8012221469847FF2084F80002002083
:103B900010BD00000A21018000487047600000202D
:103BA0004321018000487047B0000020432101807C
:103BB000004870476C000020432101800048704796
:103BC000F40000202DE9F0410446007C00254FF46C
:103BD000007670B3402302228121204600F0C6FA0D
:103BE000402302220121204600F0C0FA08230322CC
:103BF0008221204600F0BAFA4FF4077001F0B0F9C4
:103C0000C4F81802F0B10746D4F81C0200688047D7
:103C10000020C7F81402C7F81802207CD7F8042245
:103C200090B140230121204600F0AAFA2846BDE8C1
:103C3000F081FFE7334602228121204600F096FA08
:103C40003346CEE70125F1E73346EBE70246022093
:103C5000002902D00020C2F81C127047D0F81802C8
:103C6000C0F8041200207047D0F81802C0F81022E3
:103C7000C0F808120020704770B50646D0F81852F8
:103C800008780C4600F06001202921D1E288C2B1F9
:103C9000000660780AD5D6F81C128B68294698472A
:103CA000E2882946304600F051F811E085F800021C
:103CB000A07985F80102E2882946304600F02CF808
:103CC00006E0D6F81C12002260788B6811469847EF
:103CD000002070BD10B5D0F8142252689047002023
:103CE00010BD134610B50A46002100F049FA002025
:103CF00010BD134610B50A46002100F0C7FA002097
:103D000010BD10B50446802100F0A9FA2046BDE898
:103D10001040002100F0A3BA10B50323C0F8082119
:103D2000C0F8F431C0F80C2113460A46002100F017
:103D300027FA002010BD10B505210023C0F8F411AA
:103D40001A46194600F01CFA002010BD10B50223D7
:103D50008261C0F8F431C26113460A46002100F0C6
:103D600095FA002010BD10B504210023C0F8F4110D
:103D70001A46194600F08AFA002010BD10B50A460E
:103D8000024903A000F0D4F8004810BD6C0E0020DA
:103D900043444320436F6E66696700001220088029
:103DA000004870473400002010B50A46024903A0BD
:103DB00000F0BEF8004810BD6C0E002043444320C4
:103DC000496E7465726661636500000004200880B6
:103DD000004870473000002010B50A46024903A091
:103DE00000F0A6F8004810BD6C0E002053544D6939
:103DF00063726F656C656374726F6E6963730000E4
:103E000010B50A46024903A000F092F8004810BD20
:103E10006C0E002053544D33322056697274756114
:103E20006C20436F6D506F727400000010B50A462D
:103E3000024903A000F07CF8004810BD6C0E002081
:103E40003030303030303030303031410000000020
:103E5000F8B5044648880D46010A08294BD2DFE828
:103E600001F04A0409174A4A4048D4F81012207C4D
:103E70000A6832E0207C02260028D4F8140205D01B
:103E8000C16A684688470146467041E0816AF8E7A2
:103E9000C0B206282FD2DFE800F003080D12171C6D
:103EA000D4F81012207C4A6817E0D4F81012207C55
:103EB0008A6812E0D4F81012207CCA680DE0D4F8A9
:103EC0001012207C0A6908E0D4F81012207C4A699C
:103ED00003E0D4F81012207C8A69694690470146B5
:103EE00016E0207C38B9D4F81402416B6846884744
:103EF000F5E7207C20B129462046FFF702FFF8BDF8
:103F0000D4F81402016B68468847014607204870C0
:103F1000BDF800000028F2D0EA88002AEFD08242E3
:103F200000D90246ADF800202046FFF70FFFF8BD8C
:103F300070B5002300281DD00446002502E06D1C4A
:103F4000EDB2641C2678002EF9D1022404EB45045E
:103F50001480CC545B1C0322CA5400245B1C06E072
:103F6000CA545B1CDAB28C54521CD3B2401C027887
:103F7000002AF5D170BD10B580B1D0F8143213B15C
:103F80000023C0F8143209B1C0F81012012180F8E2
:103F9000FC11027000F0A8F8002010BD022010BD36
:103FA00010B5D0F82002FDF70CFC002010BD10B5B4
:103FB000D0F82002FDF7E3FB002010BD2DE9F04111
:103FC0001746044641B1D4F814024269EAB394F8A2
:103FD000FC0103283DD03EE0D4F8F411002504F1A3
:103FE000140002292CD1D0E902639E4207D9F31AAA
:103FF00083609AB239462046FFF77BFE20E0406896
:10400000B0FBF3F103FB110169B998420BD3D4F86B
:10401000F811884207D2002211462046FFF769FEB8
:10402000C4F8F8510CE0D4F81402C16829B194F82E
:10403000FC01032801D1204688472046FFF77BFE7C
:1040400094F80002012806D100E004E084F8005250
:1040500001E0204690470020BDE8F08170B515468C
:10406000044641B1D4F8140282693AB394F8FC01D1
:10407000032824D025E0D4F8F41104F58270032934
:104080001FD1D0E902218A420BD9531A8360084616
:10409000834200D303469AB229462046FFF721FE09
:1040A0000FE0D4F81402016929B194F8FC01032847
:1040B00001D1204688472046FFF755FE01E0204603
:1040C0009047002070BD0020704710B5012180F896
:1040D000FC11D0F81422017952689047002010BDDD
:1040E000D0F82002FDF795BB10B5017831BB14491B
:1040F0000222C1F8AC03C0F820124FF0A0400860C3
:10410000072048600020C1E90320C1E9050201221F
:10411000C1E9070248628862C8620846FDF732FEBC
:1041200080210748FDF7EAFA402200210448FDF704
:10413000E9FA802201210248FDF7E4FA002010BDCF
:10414000BC0A00200A0601F07F01D0F82002C1EB72
:10415000C10100EB810002D590F83200704790F861
:10416000D6017047002070470020704710B51C46EC
:104170001346D0F820022246FDF755FB002010BD63
:1041800010B5D0F82002FDF779FB002010BD70B506
:104190000022044640231146FFF7E8FF40252B4646
:1041A000002280212046C4F81051FFF7DFFF0120D4
:1041B000256284F8FC01D4F8180228B1D4F814025E
:1041C0002179426820469047002070BD90F8FD118B
:1041D00080F8FC110020704710B590F8FC110329FD
:1041E00004D1D0F81412C96901B18847002010BD6C
:1041F00001740020704710B5D0F82002FDF776FE5C
:10420000002010BD70B5044600F50270054600F0B0
:1042100044F80120C4F8F401B4F80E02C4F8F8011F
:1042200094F8080210F01F010AD001290DD00229CC
:1042300010D000F08001204600F011F8002070BD81
:104240002946204600F08FF8F8E72946204600F07E
:1042500063F9F3E72946204600F0FEF8EEE710B5D3
:10426000D0F82002FDF739FB002010BD10B5D0F8C2
:104270002002FDF754FE002010BD90F8FC1180F8DC
:10428000FD11042180F8FC110020704710B5D0F812
:104290002002FDF752FB002010BD0A7802704A7818
:1042A00042708A78CB7802EB032242800A794B79FC
:1042B00002EB032282808A79C97902EB0121C18055
:1042C00070470246002011B1C2F814127047022054
:1042D000704710B5D0F8142202241AB11268904722
:1042E00000B90024204610BD70B50E461A4D8978DD
:1042F00004462970012928D894F8FC01022802D02C
:10430000032822D105E099B10320616084F8FC0103
:1043100009E091B1606888420AD0C1B22046FFF737
:10432000D9FC297861602046FFF7D3FF02280CD022
:104330002046BDE87040FFF716BD022084F8FC015E
:1043400020466160FFF7C6FCF2E731462046BDE833
:104350007040FFF7D6BC00007001002010B5FFF7D9
:1043600085FF002010BD2DE9F04100264B78012586
:1043700032460A2B43D2DFE803F03C584251420850
:1043800005422A27FFF764FD63E004468888C8B920
:10439000C888B8B9887800F07F0794F8FC01032832
:1043A00010D084F8FE7139462046FFF724FF2046DE
:1043B000FFF7D9FC1FB1022084F8FC0149E084F822
:1043C000FC5146E020461AE0FFF78EFF41E0CB8823
:1043D000012B14D190F8FC31022B02D0032B0ED10B
:1043E00004E08260012200F1080114E00122011DB5
:1043F00011E090F8FC21022A04D0032A02D0FFF732
:1044000080FC26E0C560D0F8041209B10321C16028
:10441000022200F10C01FFF799FC1AE004464888DB
:10442000012816D1C4F804520BE0044690F8FC01B0
:10443000022801D00328C5D14888012809D1C4F831
:104440000422D4F814028268204690472046FFF7E1
:104450008AFC3046BDE8F08170B50D460446097906
:104460006878002678B3012816D0032836D194F84E
:10447000FC01022817D003282CD1688828B921B163
:10448000802902D02046FFF7EAFED4F8140229461C
:1044900082682046904712E094F8FC01022802D07E
:1044A000032817D103E0C9B180291BD116E0688821
:1044B000A0B9480603D02046FFF772FDE5E7204685
:1044C000FFF751FC0AE0FFE794F8FC01022807D04F
:1044D00003280BD029462046FFF713FC304670BD59
:1044E0004806FBD02046FFF7BAFEF7E7080601F0C2
:1044F0007F0004EB001501D5143501E005F5827548
:104500002046FFF71FFE00B1012028600222294645
:104510002046FFF71BFCE1E770B5054690F8FC016B
:104520000C4603280DD1207901280AD8D5F81402A9
:10453000826828469047E08830B92846FFF713FC88
:1045400002E02846FFF7DDFB002070BD30B54C7857
:104550001D4B01220D78AA40012CD0F81C4818D020
:1045600044EA0242C0F81C280A7800EB4210D0F856
:10457000002B12040BD4D0F8002B0C89C4F30A04CE
:104580002243C97843EA81410A43C0F8002B002046
:1045900030BD92B21443C0F81C480C7800EB4410B4
:1045A000D0F800291204F2D4D0F800290D89C5F3FF
:1045B0000A052A43C978890441EA84510A431A4307
:1045C000C0F80029E3E7000000800010D0F80019CF
:1045D0006FF30A01C0F80019D0F80818C1F34101BF
:1045E000022905D1D0F8001941F00301C0F80019E3
:1045F000D0F8041841F48071C0F804180020704706
:1046000070B50446049D06990B9801290CD0E0680A
:1046100040F04000E060204600F028F84FF4803081
:10462000A063012D16D01DE0A16B21F48031A163A0
:10463000E1680D4A1140E160E16821F44011E16058
:10464000012803D1E06840F48010E060204600F0CB
:104650000DF8E6E7A06840F00C00A060A06840F00C
:104660002000A060002070BDBFFFBDFF01220C49EB
:1046700002E0521C8A420BD80369002BF9DA026966
:1046800042F001020261012204E0521C8A4201D977
:10469000032070470369DB07F7D100207047000053
:1046A000400D030030B54D7801220C7802FA04F376
:1046B000012DD0F83C4816D024EA0343C0F83C381A
:1046C000D0F81C380C78A24023EA0242C0F81C281B
:1046D000097800EB4110D0F8001B21F40041C0F82C
:1046E000001B002030BD9BB29C43C0F83C48D0F872
:1046F0001C380C78A24092B29343C0F81C38097859
:1047000000EB4110D0F8001921F40041C0F8001965
:10471000E7E710B5D0F8041821F00201C0F804183A
:104720000320FCF7D7FD002010BD10B5D0F8041809
:1047300041F00201C0F804180320FCF7CBFD002073
:1047400010BD00002DE9F0470E460446DDE90A0AD7
:104750000025DDF83480089FA16B41F40021A1639E
:10476000B8F1000F03D1A16B41F40011A1634FF028
:104770000009C4F8009ED4F80018C4F800180128F5
:1047800004D0D4F8000840F0030004E0D4F8000896
:104790000BB140F00100C4F800081021204600F0E1
:1047A000BDFA204600F0AAFA4846C4F81098C4F8AA
:1047B00014984FF0FF31C4F81818C4F81C984FF043
:1047C000904CFF2310E000BF04EB4511D1F8002905
:1047D000002A02DAC1F800C901E0C1F80009C1F8F5
:1047E0001009C1F808396D1CAE42EDD800210FE068
:1047F00004EB4112D2F8005B002D02DAC2F800CBC4
:1048000001E0C2F8000BC2F8100BC2F8083B491CCB
:104810008E42EDD8D4F8101821F48071C4F8101825
:10482000012F0AD11449C4F83018D4F83018134AAB
:104830001143C4F83018D4F83018A0616FF08040EC
:1048400060611FB9A06940F01000A061A0690C4927
:104850000843A061BAF1000F03D0A06940F008003E
:10486000A061B8F1010F03D1A06906490843A06116
:104870000020BDE8F0870000000180000300010077
:1048800000383C8004000040816821F00101816013
:104890000020704730B54D784D4C0B7800EB43133A
:1048A000012D28D0D3F8105B6FF31205C3F8105B0D
:1048B0000B7800EB4313D3F8105B2540C3F8105B73
:1048C0004B690BB18B684B610B7800EB4313D3F84A
:1048D000104B44F40024C3F8104B0B7800EB431347
:1048E000D3F8104B8D68C5F312052C43C3F8104B59
:1048F000012A5CD061E04D69002DD3F810593BD0FE
:104900006FF31205C3F810590B7800EB4313D3F87B
:1049100010592540C3F810594C698B689C4200D946
:104920004B610B7800EB4313D3F8104944F4002497
:10493000C3F810490B7800EB4313D3F810494D69C5
:10494000C5F3120554EA0504C3F81049012A27D01B
:104950004A693AB1D0F834280C780123A3401A43AD
:10496000C0F83428097800EB4110D0F8001941F064
:104970000441C0F8001929E02540C3F810590B780C
:1049800000EB4313D3F8104944F40024C3F8104952
:104990000B7800EB4313D3F810496FF31204D3E7FD
:1049A0000B7800EB43130A69C3F81429DAE70B7894
:1049B00000EB4313CA68C3F8142B097800EB4110CD
:1049C000D0F8001B41F00441C0F8001B002030BDAE
:1049D000FFFF07E00023C0F8103BD0F8103B43F482
:1049E0000023C0F8103BD0F8103B43F01803C0F888
:1049F000103BD0F8103B43F0C043C0F8103B0129F6
:104A000005D1C0F8142B4FF08021C0F8001B002006
:104A100070474B780A7800EB4212012B0BD0D2F88A
:104A2000003B23F40013C2F8003BCA78032A17D0D6
:104A3000022A15D01DE0D2F8003923F40013C2F881
:104A40000039CA78032A01D0022A12D1097800EB72
:104A50004110D0F8001941F08051C0F8001908E069
:104A6000097800EB4110D0F8001B41F08051C0F8EC
:104A7000001B002070474B780A7800EB4212012B94
:104A800014D0D2F8003B002B05DBD2F8003B23F01A
:104A90008043C2F8003B097800EB4110D0F8001BBE
:104AA00041F40011C0F8001B00207047D2F8003913
:104AB000002B05DBD2F8003923F08043C2F800391F
:104AC000097800EB4110D0F8001941F40011C0F84A
:104AD0000019E9E778B54E786FF06045834C0B78A4
:104AE00000EB4313012E2FD0D3F8106B6FF3120697
:104AF000C3F8106B0B7800EB4313D3F8106B264010
:104B0000C3F8106B4B69002B7DD08C6823445B1E6F
:104B1000B3FBF4F39BB20C7800EB4414D4F8106BA5
:104B200005EAC3452E43C4F8106B0C7800EB44141F
:104B3000D4F8105B8E685E43C6F312031D43C4F8BD
:104B4000105B012A73D0B2E04E6966B3D3F81069E6
:104B50006FF31206C3F810690B7800EB4313D3F818
:104B600010692640C3F810694C698B681C44641EA8
:104B7000B4FBF3F305EAC3440B7800EB4313D3F81B
:104B800010592C43C3F810490B7800EB4313D3F8AA
:104B900010494D69C5F312052C43C3F81049CB7871
:104BA000012B16D027E0D3F810592540C3F810592F
:104BB0000B7800EB4313D3F8104944F40024C3F8F6
:104BC00010490B7800EB4313D3F810496FF312042C
:104BD0000FE00B7800EB4313D3F8104924F0C044E6
:104BE000C3F810490B7800EB4313D3F8104944F095
:104BF0000054C3F81049012A12D0CB78012B17D0EA
:104C00004B692BB300E037E0D0F834380D7801243D
:104C1000AC402343C0F83438CB78012B08D017E0E0
:104C20000C7800EB44140B69C4F81439F4E738E04D
:104C3000D0F80838DB050B7800EB4313D3F80049B4
:104C400002D444F0005401E044F08054C3F8004919
:104C50000B7800EB4313D3F8004944F00444C3F845
:104C60000049CB78012B3ED100928A8A93B20A7810
:104C7000C96800F0E7F836E00B7800EB4313D3F88F
:104C8000104B8D68C5F312052C43C3F8104B0B78FD
:104C900000EB4313D3F8104B44F40024C3F8104B3B
:104CA0004FE70B7800EB4313CA68C3F8142BCA789C
:104CB000012A0FD1D0F80828D2050A7800EB421259
:104CC000D2F8003B02D443F0005301E043F080539C
:104CD000C2F8003B097800EB4110D0F8001B41F00E
:104CE0000441C0F8001B002078BD0000FFFF07E072
:104CF000816841F00101816000207047002110228D
:104D00000261054A491C914201D903207047036999
:104D1000DB06F7D400207047400D0300002220235B
:104D200043EA411101610549521C8A4201D903201D
:104D3000704703699B06F7D400207047400D0300BD
:104D40000021D0F8082812F0060F15D0D0F8082856
:104D5000C2F34102012A0CD0D0F80828C2F3410264
:104D6000032A06D0D0F80808C0F34100022802D078
:104D700002E0032100E0022108467047406900F08C
:104D800001007047D0F81818D0F81C08084080B20D
:104D90007047D0F81818D0F81C080840000C70476D
:104DA000D0F81038D0F83428CA4002F0010243EAA3
:104DB000C21200EB4110D0F808091040704700EB18
:104DC0004111D1F8081BD0F8140808407047416918
:104DD00080690840704710B503460020D21C920835
:104DE00003F5805303E01C6841F8044B401C9042DB
:104DF000F9D3084610BD10B5C26822F0C042C260A7
:104E0000012901D021B107E0C16841F0005102E061
:104E1000C16841F08041C1603220FCF75BFA00209C
:104E200010BDD0F8002822F4FE62C0F80028D0F8A7
:104E300000284FF4FE6303EA01110A43C0F800287A
:104E40000020704730B50024039D6DB9DB1C9B0822
:104E500000EB023000F5805004E000BF51F8042B55
:104E60000260641C9C42F9D3002030BD02E008C8F7
:104E7000121F08C1002AFAD170477047002001E0D4
:104E800001C1121F002AFBD17047000010B5002895
:104E900021D0114B0022001F196803E0814203D882
:104EA0000A4649680029F9D152B11368841A9C4214
:104EB00004D1006818441060104602E0506000E021
:104EC000186039B102680B1A934203D10B681A4477
:104ED00002604968416010BD7401002001224FF654
:104EE000FF710148FCF7E4BA000C0240FCF792FBAA
:104EF000FEF73CFA0720FCF7EFFB00221146501E9C
:104F0000FCF7CAFBFDF7E6FFFDF7AAFFFEF77CF80A
:104F1000FEF7EEF8FEF724F9FEF746F9FEF78CF8F7
:104F2000FEF7AEF8FEF764F9FEF776F9FEF788F9BA
:104F3000002404E06D1C0024EDB2072D00D90025EB
:104F4000FFF7CCFF2946204600F040F8641CE4B28D
:104F500000F0E8F83220FCF7BDF90F2CF2D1E9E7B8
:104F6000F0B50B30154D20F007010024144A0FE076
:104F700003688B420BD38B4205D95E1A43184768EE
:104F8000C3E9006700E04368136002C004E0021D4B
:104F900010680028ECD12046002802D1286808B10A
:104FA0000020F0BD064A07481060074A121A22F096
:104FB0000702C0E9002401202860D7E7780100201B
:104FC00074010020741000207012002070B5054696
:104FD0000E460F2874D805F0010010EB55000ED0D6
:104FE00001280ED002280ED003280FD0042810D09C
:104FF000052811D0062812D0072813D014E040212C
:1050000012E0802110E04FF480710DE04FF4007148
:105010000AE04FF4806107E04FF4006104E04FF4D0
:10502000805101E04FF400513D4C00222046FCF736
:105030003FFA082E72D2DFE806F00413252F394418
:105040005362E8074FF000025DD008212046FCF7CC
:105050002FFA012210212046FCF72AFA01220BE048
:10506000E8074FF001021BD008212046FCF720FA88
:105070000022EFE7042100E020212046BDE8704037
:10508000FCF716BAE8074FF0010213D008212046BA
:10509000FCF70EFA01221DE0E8074FF00002E3D111
:1050A00001212046FCF704FA002231E0E8074FF026
:1050B0000002EBD101212046FCF7FAF9012218E0A9
:1050C0002CE0E8074FF001020ED008212046FCF743
:1050D000EFF9002210212046FCF7EAF90022CBE785
:1050E000E8074FF00002F0D101212046FCF7E0F97B
:1050F000002202212046FCF7DBF90022BAE7E8078C
:105100004FF00102A1D101212046FCF7D1F9012283
:1051100002212046FCF7CCF90122ABE770BD00006C
:10512000000C02400248016881F4004101607047B0
:10513000140C0240000000000102030401020304F9
:105140000607080964510008000000207C010000E7
:1051500008020008245200087C010020F41400001A
:105160007C4E00081369021B0863041A5F041A9539
:105170000441139D3D1B08CD041AD90413013E1BA5
:10518000082D041A7D0C1AA904170403090412013E
:105190003202164083044057360201020301932471
:1051A000F419124604060708094B0A062C29231C89
:1051B0000902432F112DC032090425190B130524B0
:1051C0001610010524011009010424020205240619
:1051D000170107058203081C10090465320A1D0720
:1051E000050102432C070581070938442A40072A94
:1051F0008107112B0907440A2204440A16FF4413AD
:10520000C53B1B08330413793C42081A6F0C13F199
:105210003A1B080508C11AAD101AA1041AB904DA1C
:04522000951C0000D9
:040000050800018965
:00000001FF
